{
  "contractName": "ERC1155Factory",
  "abi": [
    {
      "anonymous": false,
      "inputs": [
        {
          "indexed": false,
          "internalType": "address",
          "name": "contractAddress",
          "type": "address"
        },
        {
          "indexed": false,
          "internalType": "address",
          "name": "owner",
          "type": "address"
        }
      ],
      "name": "CollectionCreated",
      "type": "event"
    },
    {
      "inputs": [
        {
          "internalType": "uint256",
          "name": "",
          "type": "uint256"
        }
      ],
      "name": "contractAddresses",
      "outputs": [
        {
          "internalType": "address",
          "name": "",
          "type": "address"
        }
      ],
      "stateMutability": "view",
      "type": "function",
      "constant": true
    },
    {
      "inputs": [
        {
          "internalType": "string",
          "name": "_collectionName",
          "type": "string"
        },
        {
          "internalType": "string",
          "name": "_uri",
          "type": "string"
        }
      ],
      "name": "deployCollection",
      "outputs": [],
      "stateMutability": "payable",
      "type": "function",
      "payable": true
    }
  ],
  "bytecode": "0x608060405234801561001057600080fd5b50613851806100206000396000f3fe6080604052600436106200002c5760003560e01c8063296fbc9e14620000315780633263b5451462000051575b600080fd5b6200004f60048036038101906200004991906200036e565b62000095565b005b3480156200005e57600080fd5b506200007d60048036038101906200007791906200042e565b620001aa565b6040516200008c9190620004a5565b60405180910390f35b600082604051602001620000aa919062000545565b6040516020818303038152906040528051906020012090506000818484604051620000d590620001ea565b620000e2929190620005b0565b8190604051809103906000f590508015801562000103573d6000803e3d6000fd5b5090506000819080600181540180825580915050600190039060005260206000200160009091909190916101000a81548173ffffffffffffffffffffffffffffffffffffffff021916908373ffffffffffffffffffffffffffffffffffffffff1602179055507f5d0de243db1669e3a7056744cd715c625f0c1c348736c2c2d53d0ddebff1a6c781336040516200019c929190620005eb565b60405180910390a150505050565b60008181548110620001bb57600080fd5b906000526020600020016000915054906101000a900473ffffffffffffffffffffffffffffffffffffffff1681565b613203806200061983390190565b6000604051905090565b600080fd5b600080fd5b600080fd5b600080fd5b6000601f19601f8301169050919050565b7f4e487b7100000000000000000000000000000000000000000000000000000000600052604160045260246000fd5b620002618262000216565b810181811067ffffffffffffffff8211171562000283576200028262000227565b5b80604052505050565b600062000298620001f8565b9050620002a6828262000256565b919050565b600067ffffffffffffffff821115620002c957620002c862000227565b5b620002d48262000216565b9050602081019050919050565b82818337600083830152505050565b6000620003076200030184620002ab565b6200028c565b90508281526020810184848401111562000326576200032562000211565b5b62000333848285620002e1565b509392505050565b600082601f8301126200035357620003526200020c565b5b813562000365848260208601620002f0565b91505092915050565b6000806040838503121562000388576200038762000202565b5b600083013567ffffffffffffffff811115620003a957620003a862000207565b5b620003b7858286016200033b565b925050602083013567ffffffffffffffff811115620003db57620003da62000207565b5b620003e9858286016200033b565b9150509250929050565b6000819050919050565b6200040881620003f3565b81146200041457600080fd5b50565b6000813590506200042881620003fd565b92915050565b60006020828403121562000447576200044662000202565b5b6000620004578482850162000417565b91505092915050565b600073ffffffffffffffffffffffffffffffffffffffff82169050919050565b60006200048d8262000460565b9050919050565b6200049f8162000480565b82525050565b6000602082019050620004bc600083018462000494565b92915050565b600081519050919050565b600081905092915050565b60005b83811015620004f8578082015181840152602081019050620004db565b8381111562000508576000848401525b50505050565b60006200051b82620004c2565b620005278185620004cd565b935062000539818560208601620004d8565b80840191505092915050565b60006200055382846200050e565b915081905092915050565b600082825260208201905092915050565b60006200057c82620004c2565b6200058881856200055e565b93506200059a818560208601620004d8565b620005a58162000216565b840191505092915050565b60006040820190508181036000830152620005cc81856200056f565b90508181036020830152620005e281846200056f565b90509392505050565b600060408201905062000602600083018562000494565b62000611602083018462000494565b939250505056fe60806040523480156200001157600080fd5b5060405162003203380380620032038339818101604052810190620000379190620003c2565b8062000049816200008b60201b60201c565b506200006a6200005e620000a760201b60201c565b620000af60201b60201c565b81600490805190602001906200008292919062000175565b505050620004ab565b8060029080519060200190620000a392919062000175565b5050565b600033905090565b6000600360009054906101000a900473ffffffffffffffffffffffffffffffffffffffff16905081600360006101000a81548173ffffffffffffffffffffffffffffffffffffffff021916908373ffffffffffffffffffffffffffffffffffffffff1602179055508173ffffffffffffffffffffffffffffffffffffffff168173ffffffffffffffffffffffffffffffffffffffff167f8be0079c531659141344cd1fd0a4f28419497f9722a3daafe3b4186f6b6457e060405160405180910390a35050565b828054620001839062000476565b90600052602060002090601f016020900481019282620001a75760008555620001f3565b82601f10620001c257805160ff1916838001178555620001f3565b82800160010185558215620001f3579182015b82811115620001f2578251825591602001919060010190620001d5565b5b50905062000202919062000206565b5090565b5b808211156200022157600081600090555060010162000207565b5090565b6000604051905090565b600080fd5b600080fd5b600080fd5b600080fd5b6000601f19601f8301169050919050565b7f4e487b7100000000000000000000000000000000000000000000000000000000600052604160045260246000fd5b6200028e8262000243565b810181811067ffffffffffffffff82111715620002b057620002af62000254565b5b80604052505050565b6000620002c562000225565b9050620002d3828262000283565b919050565b600067ffffffffffffffff821115620002f657620002f562000254565b5b620003018262000243565b9050602081019050919050565b60005b838110156200032e57808201518184015260208101905062000311565b838111156200033e576000848401525b50505050565b60006200035b6200035584620002d8565b620002b9565b9050828152602081018484840111156200037a57620003796200023e565b5b620003878482856200030e565b509392505050565b600082601f830112620003a757620003a662000239565b5b8151620003b984826020860162000344565b91505092915050565b60008060408385031215620003dc57620003db6200022f565b5b600083015167ffffffffffffffff811115620003fd57620003fc62000234565b5b6200040b858286016200038f565b925050602083015167ffffffffffffffff8111156200042f576200042e62000234565b5b6200043d858286016200038f565b9150509250929050565b7f4e487b7100000000000000000000000000000000000000000000000000000000600052602260045260246000fd5b600060028204905060018216806200048f57607f821691505b602082108103620004a557620004a462000447565b5b50919050565b612d4880620004bb6000396000f3fe608060405234801561001057600080fd5b50600436106100b35760003560e01c80638da5cb5b116100715780638da5cb5b1461019e5780639d4ee7f7146101bc578063a22cb465146101ec578063e985e9c514610208578063f242432a14610238578063f2fde38b14610254576100b3565b8062fdd58e146100b857806301ffc9a7146100e85780630e89341c146101185780632eb2c2d6146101485780634e1273f414610164578063715018a614610194575b600080fd5b6100d260048036038101906100cd919061182b565b610270565b6040516100df919061187a565b60405180910390f35b61010260048036038101906100fd91906118ed565b610338565b60405161010f9190611935565b60405180910390f35b610132600480360381019061012d9190611950565b61041a565b60405161013f9190611a16565b60405180910390f35b610162600480360381019061015d9190611c35565b6104ae565b005b61017e60048036038101906101799190611dc7565b61054f565b60405161018b9190611efd565b60405180910390f35b61019c610668565b005b6101a66106f0565b6040516101b39190611f2e565b60405180910390f35b6101d660048036038101906101d19190611950565b61071a565b6040516101e39190611a16565b60405180910390f35b61020660048036038101906102019190611f75565b610756565b005b610222600480360381019061021d9190611fb5565b61076c565b60405161022f9190611935565b60405180910390f35b610252600480360381019061024d9190611ff5565b610800565b005b61026e6004803603810190610269919061208c565b6108a1565b005b60008073ffffffffffffffffffffffffffffffffffffffff168373ffffffffffffffffffffffffffffffffffffffff16036102e0576040517f08c379a00000000000000000000000000000000000000000000000000000000081526004016102d79061212b565b60405180910390fd5b60008083815260200190815260200160002060008473ffffffffffffffffffffffffffffffffffffffff1673ffffffffffffffffffffffffffffffffffffffff16815260200190815260200160002054905092915050565b60007fd9b67a26000000000000000000000000000000000000000000000000000000007bffffffffffffffffffffffffffffffffffffffffffffffffffffffff1916827bffffffffffffffffffffffffffffffffffffffffffffffffffffffff1916148061040357507f0e89341c000000000000000000000000000000000000000000000000000000007bffffffffffffffffffffffffffffffffffffffffffffffffffffffff1916827bffffffffffffffffffffffffffffffffffffffffffffffffffffffff1916145b80610413575061041282610998565b5b9050919050565b6060600280546104299061217a565b80601f01602080910402602001604051908101604052809291908181526020018280546104559061217a565b80156104a25780601f10610477576101008083540402835291602001916104a2565b820191906000526020600020905b81548152906001019060200180831161048557829003601f168201915b50505050509050919050565b6104b6610a02565b73ffffffffffffffffffffffffffffffffffffffff168573ffffffffffffffffffffffffffffffffffffffff1614806104fc57506104fb856104f6610a02565b61076c565b5b61053b576040517f08c379a00000000000000000000000000000000000000000000000000000000081526004016105329061221d565b60405180910390fd5b6105488585858585610a0a565b5050505050565b60608151835114610595576040517f08c379a000000000000000000000000000000000000000000000000000000000815260040161058c906122af565b60405180910390fd5b6000835167ffffffffffffffff8111156105b2576105b1611a3d565b5b6040519080825280602002602001820160405280156105e05781602001602082028036833780820191505090505b50905060005b845181101561065d5761062d858281518110610605576106046122cf565b5b60200260200101518583815181106106205761061f6122cf565b5b6020026020010151610270565b8282815181106106405761063f6122cf565b5b602002602001018181525050806106569061232d565b90506105e6565b508091505092915050565b610670610a02565b73ffffffffffffffffffffffffffffffffffffffff1661068e6106f0565b73ffffffffffffffffffffffffffffffffffffffff16146106e4576040517f08c379a00000000000000000000000000000000000000000000000000000000081526004016106db906123c1565b60405180910390fd5b6106ee6000610d1d565b565b6000600360009054906101000a900473ffffffffffffffffffffffffffffffffffffffff16905090565b6060610726600061041a565b61072f83610de3565b6040516020016107409291906124b5565b6040516020818303038152906040529050919050565b610768610761610a02565b8383610f43565b5050565b6000600160008473ffffffffffffffffffffffffffffffffffffffff1673ffffffffffffffffffffffffffffffffffffffff16815260200190815260200160002060008373ffffffffffffffffffffffffffffffffffffffff1673ffffffffffffffffffffffffffffffffffffffff16815260200190815260200160002060009054906101000a900460ff16905092915050565b610808610a02565b73ffffffffffffffffffffffffffffffffffffffff168573ffffffffffffffffffffffffffffffffffffffff16148061084e575061084d85610848610a02565b61076c565b5b61088d576040517f08c379a000000000000000000000000000000000000000000000000000000000815260040161088490612561565b60405180910390fd5b61089a85858585856110af565b5050505050565b6108a9610a02565b73ffffffffffffffffffffffffffffffffffffffff166108c76106f0565b73ffffffffffffffffffffffffffffffffffffffff161461091d576040517f08c379a0000000000000000000000000000000000000000000000000000000008152600401610914906123c1565b60405180910390fd5b600073ffffffffffffffffffffffffffffffffffffffff168173ffffffffffffffffffffffffffffffffffffffff160361098c576040517f08c379a0000000000000000000000000000000000000000000000000000000008152600401610983906125f3565b60405180910390fd5b61099581610d1d565b50565b60007f01ffc9a7000000000000000000000000000000000000000000000000000000007bffffffffffffffffffffffffffffffffffffffffffffffffffffffff1916827bffffffffffffffffffffffffffffffffffffffffffffffffffffffff1916149050919050565b600033905090565b8151835114610a4e576040517f08c379a0000000000000000000000000000000000000000000000000000000008152600401610a4590612685565b60405180910390fd5b600073ffffffffffffffffffffffffffffffffffffffff168473ffffffffffffffffffffffffffffffffffffffff1603610abd576040517f08c379a0000000000000000000000000000000000000000000000000000000008152600401610ab490612717565b60405180910390fd5b6000610ac7610a02565b9050610ad7818787878787611330565b60005b8451811015610c88576000858281518110610af857610af76122cf565b5b602002602001015190506000858381518110610b1757610b166122cf565b5b60200260200101519050600080600084815260200190815260200160002060008b73ffffffffffffffffffffffffffffffffffffffff1673ffffffffffffffffffffffffffffffffffffffff16815260200190815260200160002054905081811015610bb8576040517f08c379a0000000000000000000000000000000000000000000000000000000008152600401610baf906127a9565b60405180910390fd5b81810360008085815260200190815260200160002060008c73ffffffffffffffffffffffffffffffffffffffff1673ffffffffffffffffffffffffffffffffffffffff168152602001908152602001600020819055508160008085815260200190815260200160002060008b73ffffffffffffffffffffffffffffffffffffffff1673ffffffffffffffffffffffffffffffffffffffff1681526020019081526020016000206000828254610c6d91906127c9565b9250508190555050505080610c819061232d565b9050610ada565b508473ffffffffffffffffffffffffffffffffffffffff168673ffffffffffffffffffffffffffffffffffffffff168273ffffffffffffffffffffffffffffffffffffffff167f4a39dc06d4c0dbc64b70af90fd698a233a518aa5d07e595d983b8c0526c8f7fb8787604051610cff92919061281f565b60405180910390a4610d15818787878787611338565b505050505050565b6000600360009054906101000a900473ffffffffffffffffffffffffffffffffffffffff16905081600360006101000a81548173ffffffffffffffffffffffffffffffffffffffff021916908373ffffffffffffffffffffffffffffffffffffffff1602179055508173ffffffffffffffffffffffffffffffffffffffff168173ffffffffffffffffffffffffffffffffffffffff167f8be0079c531659141344cd1fd0a4f28419497f9722a3daafe3b4186f6b6457e060405160405180910390a35050565b606060008203610e2a576040518060400160405280600181526020017f30000000000000000000000000000000000000000000000000000000000000008152509050610f3e565b600082905060005b60008214610e5c578080610e459061232d565b915050600a82610e559190612885565b9150610e32565b60008167ffffffffffffffff811115610e7857610e77611a3d565b5b6040519080825280601f01601f191660200182016040528015610eaa5781602001600182028036833780820191505090505b5090505b60008514610f3757600182610ec391906128b6565b9150600a85610ed291906128ea565b6030610ede91906127c9565b60f81b818381518110610ef457610ef36122cf565b5b60200101907effffffffffffffffffffffffffffffffffffffffffffffffffffffffffffff1916908160001a905350600a85610f309190612885565b9450610eae565b8093505050505b919050565b8173ffffffffffffffffffffffffffffffffffffffff168373ffffffffffffffffffffffffffffffffffffffff1603610fb1576040517f08c379a0000000000000000000000000000000000000000000000000000000008152600401610fa89061298d565b60405180910390fd5b80600160008573ffffffffffffffffffffffffffffffffffffffff1673ffffffffffffffffffffffffffffffffffffffff16815260200190815260200160002060008473ffffffffffffffffffffffffffffffffffffffff1673ffffffffffffffffffffffffffffffffffffffff16815260200190815260200160002060006101000a81548160ff0219169083151502179055508173ffffffffffffffffffffffffffffffffffffffff168373ffffffffffffffffffffffffffffffffffffffff167f17307eab39ab6107e8899845ad3d59bd9653f200f220920489ca2b5937696c31836040516110a29190611935565b60405180910390a3505050565b600073ffffffffffffffffffffffffffffffffffffffff168473ffffffffffffffffffffffffffffffffffffffff160361111e576040517f08c379a000000000000000000000000000000000000000000000000000000000815260040161111590612717565b60405180910390fd5b6000611128610a02565b90506111488187876111398861150f565b6111428861150f565b87611330565b600080600086815260200190815260200160002060008873ffffffffffffffffffffffffffffffffffffffff1673ffffffffffffffffffffffffffffffffffffffff168152602001908152602001600020549050838110156111df576040517f08c379a00000000000000000000000000000000000000000000000000000000081526004016111d6906127a9565b60405180910390fd5b83810360008087815260200190815260200160002060008973ffffffffffffffffffffffffffffffffffffffff1673ffffffffffffffffffffffffffffffffffffffff168152602001908152602001600020819055508360008087815260200190815260200160002060008873ffffffffffffffffffffffffffffffffffffffff1673ffffffffffffffffffffffffffffffffffffffff168152602001908152602001600020600082825461129491906127c9565b925050819055508573ffffffffffffffffffffffffffffffffffffffff168773ffffffffffffffffffffffffffffffffffffffff168373ffffffffffffffffffffffffffffffffffffffff167fc3d58168c5ae7397731d063d5bbf3d657854427343f4c083240f7aacaa2d0f6288886040516113119291906129ad565b60405180910390a4611327828888888888611589565b50505050505050565b505050505050565b6113578473ffffffffffffffffffffffffffffffffffffffff16611760565b15611507578373ffffffffffffffffffffffffffffffffffffffff1663bc197c8187878686866040518663ffffffff1660e01b815260040161139d959493929190612a2b565b6020604051808303816000875af19250505080156113d957506040513d601f19601f820116820180604052508101906113d69190612aa8565b60015b61147e576113e5612ae2565b806308c379a00361144157506113f9612b04565b806114045750611443565b806040517f08c379a00000000000000000000000000000000000000000000000000000000081526004016114389190611a16565b60405180910390fd5b505b6040517f08c379a000000000000000000000000000000000000000000000000000000000815260040161147590612c06565b60405180910390fd5b63bc197c8160e01b7bffffffffffffffffffffffffffffffffffffffffffffffffffffffff1916817bffffffffffffffffffffffffffffffffffffffffffffffffffffffff191614611505576040517f08c379a00000000000000000000000000000000000000000000000000000000081526004016114fc90612c98565b60405180910390fd5b505b505050505050565b60606000600167ffffffffffffffff81111561152e5761152d611a3d565b5b60405190808252806020026020018201604052801561155c5781602001602082028036833780820191505090505b5090508281600081518110611574576115736122cf565b5b60200260200101818152505080915050919050565b6115a88473ffffffffffffffffffffffffffffffffffffffff16611760565b15611758578373ffffffffffffffffffffffffffffffffffffffff1663f23a6e6187878686866040518663ffffffff1660e01b81526004016115ee959493929190612cb8565b6020604051808303816000875af192505050801561162a57506040513d601f19601f820116820180604052508101906116279190612aa8565b60015b6116cf57611636612ae2565b806308c379a003611692575061164a612b04565b806116555750611694565b806040517f08c379a00000000000000000000000000000000000000000000000000000000081526004016116899190611a16565b60405180910390fd5b505b6040517f08c379a00000000000000000000000000000000000000000000000000000000081526004016116c690612c06565b60405180910390fd5b63f23a6e6160e01b7bffffffffffffffffffffffffffffffffffffffffffffffffffffffff1916817bffffffffffffffffffffffffffffffffffffffffffffffffffffffff191614611756576040517f08c379a000000000000000000000000000000000000000000000000000000000815260040161174d90612c98565b60405180910390fd5b505b505050505050565b6000808273ffffffffffffffffffffffffffffffffffffffff163b119050919050565b6000604051905090565b600080fd5b600080fd5b600073ffffffffffffffffffffffffffffffffffffffff82169050919050565b60006117c282611797565b9050919050565b6117d2816117b7565b81146117dd57600080fd5b50565b6000813590506117ef816117c9565b92915050565b6000819050919050565b611808816117f5565b811461181357600080fd5b50565b600081359050611825816117ff565b92915050565b600080604083850312156118425761184161178d565b5b6000611850858286016117e0565b925050602061186185828601611816565b9150509250929050565b611874816117f5565b82525050565b600060208201905061188f600083018461186b565b92915050565b60007fffffffff0000000000000000000000000000000000000000000000000000000082169050919050565b6118ca81611895565b81146118d557600080fd5b50565b6000813590506118e7816118c1565b92915050565b6000602082840312156119035761190261178d565b5b6000611911848285016118d8565b91505092915050565b60008115159050919050565b61192f8161191a565b82525050565b600060208201905061194a6000830184611926565b92915050565b6000602082840312156119665761196561178d565b5b600061197484828501611816565b91505092915050565b600081519050919050565b600082825260208201905092915050565b60005b838110156119b757808201518184015260208101905061199c565b838111156119c6576000848401525b50505050565b6000601f19601f8301169050919050565b60006119e88261197d565b6119f28185611988565b9350611a02818560208601611999565b611a0b816119cc565b840191505092915050565b60006020820190508181036000830152611a3081846119dd565b905092915050565b600080fd5b7f4e487b7100000000000000000000000000000000000000000000000000000000600052604160045260246000fd5b611a75826119cc565b810181811067ffffffffffffffff82111715611a9457611a93611a3d565b5b80604052505050565b6000611aa7611783565b9050611ab38282611a6c565b919050565b600067ffffffffffffffff821115611ad357611ad2611a3d565b5b602082029050602081019050919050565b600080fd5b6000611afc611af784611ab8565b611a9d565b90508083825260208201905060208402830185811115611b1f57611b1e611ae4565b5b835b81811015611b485780611b348882611816565b845260208401935050602081019050611b21565b5050509392505050565b600082601f830112611b6757611b66611a38565b5b8135611b77848260208601611ae9565b91505092915050565b600080fd5b600067ffffffffffffffff821115611ba057611b9f611a3d565b5b611ba9826119cc565b9050602081019050919050565b82818337600083830152505050565b6000611bd8611bd384611b85565b611a9d565b905082815260208101848484011115611bf457611bf3611b80565b5b611bff848285611bb6565b509392505050565b600082601f830112611c1c57611c1b611a38565b5b8135611c2c848260208601611bc5565b91505092915050565b600080600080600060a08688031215611c5157611c5061178d565b5b6000611c5f888289016117e0565b9550506020611c70888289016117e0565b945050604086013567ffffffffffffffff811115611c9157611c90611792565b5b611c9d88828901611b52565b935050606086013567ffffffffffffffff811115611cbe57611cbd611792565b5b611cca88828901611b52565b925050608086013567ffffffffffffffff811115611ceb57611cea611792565b5b611cf788828901611c07565b9150509295509295909350565b600067ffffffffffffffff821115611d1f57611d1e611a3d565b5b602082029050602081019050919050565b6000611d43611d3e84611d04565b611a9d565b90508083825260208201905060208402830185811115611d6657611d65611ae4565b5b835b81811015611d8f5780611d7b88826117e0565b845260208401935050602081019050611d68565b5050509392505050565b600082601f830112611dae57611dad611a38565b5b8135611dbe848260208601611d30565b91505092915050565b60008060408385031215611dde57611ddd61178d565b5b600083013567ffffffffffffffff811115611dfc57611dfb611792565b5b611e0885828601611d99565b925050602083013567ffffffffffffffff811115611e2957611e28611792565b5b611e3585828601611b52565b9150509250929050565b600081519050919050565b600082825260208201905092915050565b6000819050602082019050919050565b611e74816117f5565b82525050565b6000611e868383611e6b565b60208301905092915050565b6000602082019050919050565b6000611eaa82611e3f565b611eb48185611e4a565b9350611ebf83611e5b565b8060005b83811015611ef0578151611ed78882611e7a565b9750611ee283611e92565b925050600181019050611ec3565b5085935050505092915050565b60006020820190508181036000830152611f178184611e9f565b905092915050565b611f28816117b7565b82525050565b6000602082019050611f436000830184611f1f565b92915050565b611f528161191a565b8114611f5d57600080fd5b50565b600081359050611f6f81611f49565b92915050565b60008060408385031215611f8c57611f8b61178d565b5b6000611f9a858286016117e0565b9250506020611fab85828601611f60565b9150509250929050565b60008060408385031215611fcc57611fcb61178d565b5b6000611fda858286016117e0565b9250506020611feb858286016117e0565b9150509250929050565b600080600080600060a086880312156120115761201061178d565b5b600061201f888289016117e0565b9550506020612030888289016117e0565b945050604061204188828901611816565b935050606061205288828901611816565b925050608086013567ffffffffffffffff81111561207357612072611792565b5b61207f88828901611c07565b9150509295509295909350565b6000602082840312156120a2576120a161178d565b5b60006120b0848285016117e0565b91505092915050565b7f455243313135353a2062616c616e636520717565727920666f7220746865207a60008201527f65726f2061646472657373000000000000000000000000000000000000000000602082015250565b6000612115602b83611988565b9150612120826120b9565b604082019050919050565b6000602082019050818103600083015261214481612108565b9050919050565b7f4e487b7100000000000000000000000000000000000000000000000000000000600052602260045260246000fd5b6000600282049050600182168061219257607f821691505b6020821081036121a5576121a461214b565b5b50919050565b7f455243313135353a207472616e736665722063616c6c6572206973206e6f742060008201527f6f776e6572206e6f7220617070726f7665640000000000000000000000000000602082015250565b6000612207603283611988565b9150612212826121ab565b604082019050919050565b60006020820190508181036000830152612236816121fa565b9050919050565b7f455243313135353a206163636f756e747320616e6420696473206c656e67746860008201527f206d69736d617463680000000000000000000000000000000000000000000000602082015250565b6000612299602983611988565b91506122a48261223d565b604082019050919050565b600060208201905081810360008301526122c88161228c565b9050919050565b7f4e487b7100000000000000000000000000000000000000000000000000000000600052603260045260246000fd5b7f4e487b7100000000000000000000000000000000000000000000000000000000600052601160045260246000fd5b6000612338826117f5565b91507fffffffffffffffffffffffffffffffffffffffffffffffffffffffffffffffff820361236a576123696122fe565b5b600182019050919050565b7f4f776e61626c653a2063616c6c6572206973206e6f7420746865206f776e6572600082015250565b60006123ab602083611988565b91506123b682612375565b602082019050919050565b600060208201905081810360008301526123da8161239e565b9050919050565b600081905092915050565b60006123f78261197d565b61240181856123e1565b9350612411818560208601611999565b80840191505092915050565b7f2f00000000000000000000000000000000000000000000000000000000000000600082015250565b60006124536001836123e1565b915061245e8261241d565b600182019050919050565b7f2e6a736f6e000000000000000000000000000000000000000000000000000000600082015250565b600061249f6005836123e1565b91506124aa82612469565b600582019050919050565b60006124c182856123ec565b91506124cc82612446565b91506124d882846123ec565b91506124e382612492565b91508190509392505050565b7f455243313135353a2063616c6c6572206973206e6f74206f776e6572206e6f7260008201527f20617070726f7665640000000000000000000000000000000000000000000000602082015250565b600061254b602983611988565b9150612556826124ef565b604082019050919050565b6000602082019050818103600083015261257a8161253e565b9050919050565b7f4f776e61626c653a206e6577206f776e657220697320746865207a65726f206160008201527f6464726573730000000000000000000000000000000000000000000000000000602082015250565b60006125dd602683611988565b91506125e882612581565b604082019050919050565b6000602082019050818103600083015261260c816125d0565b9050919050565b7f455243313135353a2069647320616e6420616d6f756e7473206c656e6774682060008201527f6d69736d61746368000000000000000000000000000000000000000000000000602082015250565b600061266f602883611988565b915061267a82612613565b604082019050919050565b6000602082019050818103600083015261269e81612662565b9050919050565b7f455243313135353a207472616e7366657220746f20746865207a65726f20616460008201527f6472657373000000000000000000000000000000000000000000000000000000602082015250565b6000612701602583611988565b915061270c826126a5565b604082019050919050565b60006020820190508181036000830152612730816126f4565b9050919050565b7f455243313135353a20696e73756666696369656e742062616c616e636520666f60008201527f72207472616e7366657200000000000000000000000000000000000000000000602082015250565b6000612793602a83611988565b915061279e82612737565b604082019050919050565b600060208201905081810360008301526127c281612786565b9050919050565b60006127d4826117f5565b91506127df836117f5565b9250827fffffffffffffffffffffffffffffffffffffffffffffffffffffffffffffffff03821115612814576128136122fe565b5b828201905092915050565b600060408201905081810360008301526128398185611e9f565b9050818103602083015261284d8184611e9f565b90509392505050565b7f4e487b7100000000000000000000000000000000000000000000000000000000600052601260045260246000fd5b6000612890826117f5565b915061289b836117f5565b9250826128ab576128aa612856565b5b828204905092915050565b60006128c1826117f5565b91506128cc836117f5565b9250828210156128df576128de6122fe565b5b828203905092915050565b60006128f5826117f5565b9150612900836117f5565b9250826129105761290f612856565b5b828206905092915050565b7f455243313135353a2073657474696e6720617070726f76616c2073746174757360008201527f20666f722073656c660000000000000000000000000000000000000000000000602082015250565b6000612977602983611988565b91506129828261291b565b604082019050919050565b600060208201905081810360008301526129a68161296a565b9050919050565b60006040820190506129c2600083018561186b565b6129cf602083018461186b565b9392505050565b600081519050919050565b600082825260208201905092915050565b60006129fd826129d6565b612a0781856129e1565b9350612a17818560208601611999565b612a20816119cc565b840191505092915050565b600060a082019050612a406000830188611f1f565b612a4d6020830187611f1f565b8181036040830152612a5f8186611e9f565b90508181036060830152612a738185611e9f565b90508181036080830152612a8781846129f2565b90509695505050505050565b600081519050612aa2816118c1565b92915050565b600060208284031215612abe57612abd61178d565b5b6000612acc84828501612a93565b91505092915050565b60008160e01c9050919050565b600060033d1115612b015760046000803e612afe600051612ad5565b90505b90565b600060443d10612b9157612b16611783565b60043d036004823e80513d602482011167ffffffffffffffff82111715612b3e575050612b91565b808201805167ffffffffffffffff811115612b5c5750505050612b91565b80602083010160043d038501811115612b79575050505050612b91565b612b8882602001850186611a6c565b82955050505050505b90565b7f455243313135353a207472616e7366657220746f206e6f6e204552433131353560008201527f526563656976657220696d706c656d656e746572000000000000000000000000602082015250565b6000612bf0603483611988565b9150612bfb82612b94565b604082019050919050565b60006020820190508181036000830152612c1f81612be3565b9050919050565b7f455243313135353a204552433131353552656365697665722072656a6563746560008201527f6420746f6b656e73000000000000000000000000000000000000000000000000602082015250565b6000612c82602883611988565b9150612c8d82612c26565b604082019050919050565b60006020820190508181036000830152612cb181612c75565b9050919050565b600060a082019050612ccd6000830188611f1f565b612cda6020830187611f1f565b612ce7604083018661186b565b612cf4606083018561186b565b8181036080830152612d0681846129f2565b9050969550505050505056fea264697066735822122048d67a1d9a356540d471fe2550f9f9a9550a33c076c6a5fd6445778b5e5f696364736f6c634300080d0033a264697066735822122050252ff0dad1c1d6a85a1a3b7268a7c2bba7498c7b3aa3a563218525ffff0c2564736f6c634300080d0033",
  "immutableReferences": {},
  "source": "// SPDX-License-Identifier: GPL-3.0\npragma solidity 0.8.13;\n\nimport \"./ERC1155Token.sol\";\n\ncontract ERC1155Factory {\n\n    event CollectionCreated(address contractAddress, address owner);\n\n    address[] public contractAddresses;\n\n    function deployCollection(string memory _collectionName, string memory _uri) external payable {\n        bytes32 _salt = keccak256(abi.encodePacked(_collectionName));\n        address contractAddress = address(new ERC1155Token{salt: _salt}(_collectionName, _uri));\n        contractAddresses.push(contractAddress);\n\n        emit CollectionCreated(contractAddress, msg.sender);\n    }\n}\n",
  "sourcePath": "/Users/rchea/workspaces/alyra/marketplace/contracts/ERC1155Factory.sol",
  "compiler": {
    "name": "solc",
    "version": "0.8.13+commit.abaa5c0e.Emscripten.clang"
  },
  "schemaVersion": "3.4.7",
  "updatedAt": "2022-05-15T08:39:01.819Z",
  "networkType": "ethereum",
  "devdoc": {
    "kind": "dev",
    "methods": {},
    "version": 1
  },
  "userdoc": {
    "kind": "user",
    "methods": {},
    "version": 1
  }
}