{
  "contractName": "Adapter",
  "abi": [
    {
      "anonymous": false,
      "inputs": [
        {
          "indexed": false,
          "internalType": "address",
          "name": "contractCollection",
          "type": "address"
        },
        {
          "indexed": false,
          "internalType": "address",
          "name": "owner",
          "type": "address"
        },
        {
          "indexed": false,
          "internalType": "uint256",
          "name": "tokenId",
          "type": "uint256"
        }
      ],
      "name": "AdapterMinted",
      "type": "event"
    },
    {
      "inputs": [
        {
          "internalType": "address",
          "name": "",
          "type": "address"
        }
      ],
      "name": "mapCollections",
      "outputs": [
        {
          "internalType": "contract ERC721Token",
          "name": "",
          "type": "address"
        }
      ],
      "stateMutability": "view",
      "type": "function",
      "constant": true
    },
    {
      "inputs": [
        {
          "internalType": "string",
          "name": "_name",
          "type": "string"
        },
        {
          "internalType": "contract ERC721Token",
          "name": "_token",
          "type": "address"
        },
        {
          "internalType": "address",
          "name": "_owner",
          "type": "address"
        }
      ],
      "name": "addCollection",
      "outputs": [],
      "stateMutability": "nonpayable",
      "type": "function"
    },
    {
      "inputs": [
        {
          "internalType": "address",
          "name": "_contract",
          "type": "address"
        }
      ],
      "name": "mint",
      "outputs": [],
      "stateMutability": "nonpayable",
      "type": "function"
    }
  ],
  "bytecode": "0x608060405234801561001057600080fd5b50610968806100206000396000f3fe608060405234801561001057600080fd5b50600436106100415760003560e01c80636a62784214610046578063cf4064f914610062578063d13d94081461007e575b600080fd5b610060600480360381019061005b9190610503565b6100ae565b005b61007c600480360381019061007791906106b4565b6101c1565b005b61009860048036038101906100939190610503565b6103bb565b6040516100a59190610782565b60405180910390f35b6000600160008373ffffffffffffffffffffffffffffffffffffffff1673ffffffffffffffffffffffffffffffffffffffff16815260200190815260200160002060009054906101000a900473ffffffffffffffffffffffffffffffffffffffff1673ffffffffffffffffffffffffffffffffffffffff16631249c58b6040518163ffffffff1660e01b81526004016020604051808303816000875af115801561015c573d6000803e3d6000fd5b505050506040513d601f19601f8201168201806040525081019061018091906107d3565b90507f128932a5512cc6e6e303e62c98408c7e56520ebae7590a6b731198ce393f1b508233836040516101b59392919061081e565b60405180910390a15050565b63b2d05e00600080549050111561020d576040517f08c379a0000000000000000000000000000000000000000000000000000000008152600401610204906108b2565b60405180910390fd5b6000829050600060405180606001604052808681526020018373ffffffffffffffffffffffffffffffffffffffff1681526020018473ffffffffffffffffffffffffffffffffffffffff168152509050600081908060018154018082558091505060019003906000526020600020906003020160009091909190915060008201518160000190805190602001906102a59291906103ee565b5060208201518160010160006101000a81548173ffffffffffffffffffffffffffffffffffffffff021916908373ffffffffffffffffffffffffffffffffffffffff16021790555060408201518160020160006101000a81548173ffffffffffffffffffffffffffffffffffffffff021916908373ffffffffffffffffffffffffffffffffffffffff160217905550505081600160008473ffffffffffffffffffffffffffffffffffffffff1673ffffffffffffffffffffffffffffffffffffffff16815260200190815260200160002060006101000a81548173ffffffffffffffffffffffffffffffffffffffff021916908373ffffffffffffffffffffffffffffffffffffffff1602179055505050505050565b60016020528060005260406000206000915054906101000a900473ffffffffffffffffffffffffffffffffffffffff1681565b8280546103fa90610901565b90600052602060002090601f01602090048101928261041c5760008555610463565b82601f1061043557805160ff1916838001178555610463565b82800160010185558215610463579182015b82811115610462578251825591602001919060010190610447565b5b5090506104709190610474565b5090565b5b8082111561048d576000816000905550600101610475565b5090565b6000604051905090565b600080fd5b600080fd5b600073ffffffffffffffffffffffffffffffffffffffff82169050919050565b60006104d0826104a5565b9050919050565b6104e0816104c5565b81146104eb57600080fd5b50565b6000813590506104fd816104d7565b92915050565b6000602082840312156105195761051861049b565b5b6000610527848285016104ee565b91505092915050565b600080fd5b600080fd5b6000601f19601f8301169050919050565b7f4e487b7100000000000000000000000000000000000000000000000000000000600052604160045260246000fd5b6105838261053a565b810181811067ffffffffffffffff821117156105a2576105a161054b565b5b80604052505050565b60006105b5610491565b90506105c1828261057a565b919050565b600067ffffffffffffffff8211156105e1576105e061054b565b5b6105ea8261053a565b9050602081019050919050565b82818337600083830152505050565b6000610619610614846105c6565b6105ab565b90508281526020810184848401111561063557610634610535565b5b6106408482856105f7565b509392505050565b600082601f83011261065d5761065c610530565b5b813561066d848260208601610606565b91505092915050565b6000610681826104c5565b9050919050565b61069181610676565b811461069c57600080fd5b50565b6000813590506106ae81610688565b92915050565b6000806000606084860312156106cd576106cc61049b565b5b600084013567ffffffffffffffff8111156106eb576106ea6104a0565b5b6106f786828701610648565b93505060206107088682870161069f565b9250506040610719868287016104ee565b9150509250925092565b6000819050919050565b600061074861074361073e846104a5565b610723565b6104a5565b9050919050565b600061075a8261072d565b9050919050565b600061076c8261074f565b9050919050565b61077c81610761565b82525050565b60006020820190506107976000830184610773565b92915050565b6000819050919050565b6107b08161079d565b81146107bb57600080fd5b50565b6000815190506107cd816107a7565b92915050565b6000602082840312156107e9576107e861049b565b5b60006107f7848285016107be565b91505092915050565b610809816104c5565b82525050565b6108188161079d565b82525050565b60006060820190506108336000830186610800565b6108406020830185610800565b61084d604083018461080f565b949350505050565b600082825260208201905092915050565b7f5365637572697479207761726e696e672c206777656920746f6f206869676800600082015250565b600061089c601f83610855565b91506108a782610866565b602082019050919050565b600060208201905081810360008301526108cb8161088f565b9050919050565b7f4e487b7100000000000000000000000000000000000000000000000000000000600052602260045260246000fd5b6000600282049050600182168061091957607f821691505b60208210810361092c5761092b6108d2565b5b5091905056fea2646970667358221220a575ba88a7b6e0dbf16b6f6463f770d71289ad7bf198c5aa15d89876b8124cd064736f6c634300080d0033",
  "immutableReferences": {},
  "source": "// SPDX-License-Identifier: GPL-3.0\npragma solidity 0.8.13;\n\nimport \"./ERC721Token.sol\";\n\ncontract Adapter {\n    \n    event AdapterMinted(address contractCollection, address owner, uint256 tokenId);\n\n    Collection[] private collections;\n    \n    struct Collection{\n        string name;\n        ERC721Token token;\n        address owner;\n    }\n\n    mapping(address => ERC721Token) public mapCollections;\n\n    function addCollection(string memory _name, ERC721Token _token, address _owner )external{\n        require(collections.length <= 3 gwei, \"Security warning, gwei too high\");\n        ERC721Token token = ERC721Token(_token);\n        Collection memory collection = Collection(_name, token, _owner);\n        collections.push(collection);\n        mapCollections[address(token)] = token;\n    }\n\n    function mint(address _contract) public {\n        uint256 tokenId = mapCollections[_contract].mint();\n        \n        emit AdapterMinted(_contract, msg.sender, tokenId);\n    }\n}\n",
  "sourcePath": "/Users/rchea/workspaces/alyra/marketplace/contracts/Adapter.sol",
  "compiler": {
    "name": "solc",
    "version": "0.8.13+commit.abaa5c0e.Emscripten.clang"
  },
  "schemaVersion": "3.4.7",
  "updatedAt": "2022-05-17T22:01:38.995Z",
  "networkType": "ethereum",
  "devdoc": {
    "kind": "dev",
    "methods": {},
    "version": 1
  },
  "userdoc": {
    "kind": "user",
    "methods": {},
    "version": 1
  }
}