{
  "contractName": "ERC721Factory",
  "abi": [
    {
      "anonymous": false,
      "inputs": [
        {
          "indexed": false,
          "internalType": "address",
          "name": "contractAddress",
          "type": "address"
        },
        {
          "indexed": false,
          "internalType": "address",
          "name": "owner",
          "type": "address"
        }
      ],
      "name": "CollectionCreated",
      "type": "event"
    },
    {
      "anonymous": false,
      "inputs": [
        {
          "indexed": false,
          "internalType": "address",
          "name": "owner",
          "type": "address"
        },
        {
          "indexed": false,
          "internalType": "uint256",
          "name": "tokenId",
          "type": "uint256"
        }
      ],
      "name": "Minted",
      "type": "event"
    },
    {
      "inputs": [
        {
          "internalType": "string",
          "name": "_name",
          "type": "string"
        },
        {
          "internalType": "string",
          "name": "_symbol",
          "type": "string"
        }
      ],
      "name": "deployCollection",
      "outputs": [
        {
          "internalType": "address",
          "name": "",
          "type": "address"
        }
      ],
      "stateMutability": "payable",
      "type": "function",
      "payable": true
    },
    {
      "inputs": [
        {
          "internalType": "address",
          "name": "_address",
          "type": "address"
        }
      ],
      "name": "getCollectionName",
      "outputs": [
        {
          "internalType": "string",
          "name": "",
          "type": "string"
        }
      ],
      "stateMutability": "view",
      "type": "function",
      "constant": true
    },
    {
      "inputs": [
        {
          "internalType": "address",
          "name": "_address",
          "type": "address"
        }
      ],
      "name": "getNextTokenId",
      "outputs": [
        {
          "internalType": "uint256",
          "name": "",
          "type": "uint256"
        }
      ],
      "stateMutability": "view",
      "type": "function",
      "constant": true
    },
    {
      "inputs": [
        {
          "internalType": "address",
          "name": "_contractAddress",
          "type": "address"
        },
        {
          "internalType": "string",
          "name": "_cid",
          "type": "string"
        }
      ],
      "name": "mint",
      "outputs": [],
      "stateMutability": "nonpayable",
      "type": "function"
    },
    {
      "inputs": [
        {
          "internalType": "address",
          "name": "_address",
          "type": "address"
        },
        {
          "internalType": "uint256",
          "name": "_tokenId",
          "type": "uint256"
        }
      ],
      "name": "getCIDbyTokenId",
      "outputs": [
        {
          "internalType": "string",
          "name": "",
          "type": "string"
        }
      ],
      "stateMutability": "view",
      "type": "function",
      "constant": true
    },
    {
      "inputs": [
        {
          "internalType": "address",
          "name": "_address",
          "type": "address"
        },
        {
          "internalType": "uint256",
          "name": "_tokenId",
          "type": "uint256"
        }
      ],
      "name": "getOwnerAddressByTokenId",
      "outputs": [
        {
          "internalType": "address",
          "name": "",
          "type": "address"
        }
      ],
      "stateMutability": "view",
      "type": "function",
      "constant": true
    },
    {
      "inputs": [
        {
          "internalType": "address",
          "name": "_owner",
          "type": "address"
        }
      ],
      "name": "getOwnerCollections",
      "outputs": [
        {
          "components": [
            {
              "internalType": "address",
              "name": "contractAddress",
              "type": "address"
            },
            {
              "internalType": "address",
              "name": "owner",
              "type": "address"
            },
            {
              "internalType": "contract ERC721Token",
              "name": "token",
              "type": "address"
            }
          ],
          "internalType": "struct ERC721Factory.Collection[]",
          "name": "",
          "type": "tuple[]"
        }
      ],
      "stateMutability": "view",
      "type": "function",
      "constant": true
    }
  ],
  "bytecode": "0x608060405234801561001057600080fd5b506150ab806100206000396000f3fe6080604052600436106200007a5760003560e01c80639f9b982711620000555780639f9b9827146200013d578063a9a436361462000181578063d0def52114620001c5578063f0e8db9714620001f3576200007a565b8063296fbc9e146200007f5780635f5c518114620000b557806380f03b6814620000f9575b600080fd5b6200009d600480360381019062000097919062000e82565b62000237565b604051620000ac919062000f4c565b60405180910390f35b348015620000c257600080fd5b50620000e16004803603810190620000db919062000fd5565b620004d1565b604051620000f09190620010af565b60405180910390f35b3480156200010657600080fd5b506200012560048036038101906200011f9190620010d3565b620005bd565b604051620001349190620010af565b60405180910390f35b3480156200014a57600080fd5b50620001696004803603810190620001639190620010d3565b6200069b565b60405162000178919062001116565b60405180910390f35b3480156200018e57600080fd5b50620001ad6004803603810190620001a7919062000fd5565b62000782565b604051620001bc919062000f4c565b60405180910390f35b348015620001d257600080fd5b50620001f16004803603810190620001eb919062001133565b620008de565b005b3480156200020057600080fd5b506200021f6004803603810190620002199190620010d3565b62000a90565b6040516200022e91906200131a565b60405180910390f35b600080836040516020016200024d919062001380565b6040516020818303038152906040528051906020012090506000818585604051620002789062000cfe565b6200028592919062001399565b8190604051809103906000f5905080158015620002a6573d6000803e3d6000fd5b5090506000819050816000808373ffffffffffffffffffffffffffffffffffffffff1673ffffffffffffffffffffffffffffffffffffffff16815260200190815260200160002060006101000a81548173ffffffffffffffffffffffffffffffffffffffff021916908373ffffffffffffffffffffffffffffffffffffffff160217905550600160405180606001604052808373ffffffffffffffffffffffffffffffffffffffff1681526020013373ffffffffffffffffffffffffffffffffffffffff1681526020018473ffffffffffffffffffffffffffffffffffffffff16815250908060018154018082558091505060019003906000526020600020906003020160009091909190915060008201518160000160006101000a81548173ffffffffffffffffffffffffffffffffffffffff021916908373ffffffffffffffffffffffffffffffffffffffff16021790555060208201518160010160006101000a81548173ffffffffffffffffffffffffffffffffffffffff021916908373ffffffffffffffffffffffffffffffffffffffff16021790555060408201518160020160006101000a81548173ffffffffffffffffffffffffffffffffffffffff021916908373ffffffffffffffffffffffffffffffffffffffff16021790555050507f5d0de243db1669e3a7056744cd715c625f0c1c348736c2c2d53d0ddebff1a6c78133604051620004bd929190620013d4565b60405180910390a180935050505092915050565b60606000808473ffffffffffffffffffffffffffffffffffffffff1673ffffffffffffffffffffffffffffffffffffffff16815260200190815260200160002060009054906101000a900473ffffffffffffffffffffffffffffffffffffffff1673ffffffffffffffffffffffffffffffffffffffff1663cc4f0891836040518263ffffffff1660e01b81526004016200056c919062001116565b600060405180830381865afa1580156200058a573d6000803e3d6000fd5b505050506040513d6000823e3d601f19601f82011682018060405250810190620005b591906200147f565b905092915050565b60606000808373ffffffffffffffffffffffffffffffffffffffff1673ffffffffffffffffffffffffffffffffffffffff16815260200190815260200160002060009054906101000a900473ffffffffffffffffffffffffffffffffffffffff1673ffffffffffffffffffffffffffffffffffffffff166306fdde036040518163ffffffff1660e01b8152600401600060405180830381865afa15801562000669573d6000803e3d6000fd5b505050506040513d6000823e3d601f19601f820116820180604052508101906200069491906200147f565b9050919050565b600060016000808473ffffffffffffffffffffffffffffffffffffffff1673ffffffffffffffffffffffffffffffffffffffff16815260200190815260200160002060009054906101000a900473ffffffffffffffffffffffffffffffffffffffff1673ffffffffffffffffffffffffffffffffffffffff166318160ddd6040518163ffffffff1660e01b8152600401602060405180830381865afa15801562000749573d6000803e3d6000fd5b505050506040513d601f19601f820116820180604052508101906200076f9190620014e7565b6200077b919062001548565b9050919050565b60008073ffffffffffffffffffffffffffffffffffffffff16600260008573ffffffffffffffffffffffffffffffffffffffff1673ffffffffffffffffffffffffffffffffffffffff168152602001908152602001600020600084815260200190815260200160002060009054906101000a900473ffffffffffffffffffffffffffffffffffffffff1673ffffffffffffffffffffffffffffffffffffffff160362000865576040517f08c379a00000000000000000000000000000000000000000000000000000000081526004016200085c90620015f5565b60405180910390fd5b600260008473ffffffffffffffffffffffffffffffffffffffff1673ffffffffffffffffffffffffffffffffffffffff168152602001908152602001600020600083815260200190815260200160002060009054906101000a900473ffffffffffffffffffffffffffffffffffffffff16905092915050565b60008060008473ffffffffffffffffffffffffffffffffffffffff1673ffffffffffffffffffffffffffffffffffffffff16815260200190815260200160002060009054906101000a900473ffffffffffffffffffffffffffffffffffffffff1673ffffffffffffffffffffffffffffffffffffffff1663d85d3d27836040518263ffffffff1660e01b8152600401620009799190620010af565b6020604051808303816000875af115801562000999573d6000803e3d6000fd5b505050506040513d601f19601f82011682018060405250810190620009bf9190620014e7565b905033600260008573ffffffffffffffffffffffffffffffffffffffff1673ffffffffffffffffffffffffffffffffffffffff168152602001908152602001600020600083815260200190815260200160002060006101000a81548173ffffffffffffffffffffffffffffffffffffffff021916908373ffffffffffffffffffffffffffffffffffffffff1602179055507f30385c845b448a36257a6a1716e6ad2e1bc2cbe333cde1e69fe849ad6511adfe338260405162000a8392919062001617565b60405180910390a1505050565b606080600080600090505b60018054905081101562000cf35760006001828154811062000ac25762000ac162001644565b5b906000526020600020906003020160020160009054906101000a900473ffffffffffffffffffffffffffffffffffffffff1673ffffffffffffffffffffffffffffffffffffffff166370a08231876040518263ffffffff1660e01b815260040162000b2e919062000f4c565b602060405180830381865afa15801562000b4c573d6000803e3d6000fd5b505050506040513d601f19601f8201168201806040525081019062000b729190620014e7565b111562000cdd576001818154811062000b905762000b8f62001644565b5b90600052602060002090600302016040518060600160405290816000820160009054906101000a900473ffffffffffffffffffffffffffffffffffffffff1673ffffffffffffffffffffffffffffffffffffffff1673ffffffffffffffffffffffffffffffffffffffff1681526020016001820160009054906101000a900473ffffffffffffffffffffffffffffffffffffffff1673ffffffffffffffffffffffffffffffffffffffff1673ffffffffffffffffffffffffffffffffffffffff1681526020016002820160009054906101000a900473ffffffffffffffffffffffffffffffffffffffff1673ffffffffffffffffffffffffffffffffffffffff1673ffffffffffffffffffffffffffffffffffffffff168152505083838151811062000cc15762000cc062001644565b5b6020026020010181905250818062000cd99062001673565b9250505b808062000cea9062001673565b91505062000a9b565b508192505050919050565b6139b580620016c183390190565b6000604051905090565b600080fd5b600080fd5b600080fd5b600080fd5b6000601f19601f8301169050919050565b7f4e487b7100000000000000000000000000000000000000000000000000000000600052604160045260246000fd5b62000d758262000d2a565b810181811067ffffffffffffffff8211171562000d975762000d9662000d3b565b5b80604052505050565b600062000dac62000d0c565b905062000dba828262000d6a565b919050565b600067ffffffffffffffff82111562000ddd5762000ddc62000d3b565b5b62000de88262000d2a565b9050602081019050919050565b82818337600083830152505050565b600062000e1b62000e158462000dbf565b62000da0565b90508281526020810184848401111562000e3a5762000e3962000d25565b5b62000e4784828562000df5565b509392505050565b600082601f83011262000e675762000e6662000d20565b5b813562000e7984826020860162000e04565b91505092915050565b6000806040838503121562000e9c5762000e9b62000d16565b5b600083013567ffffffffffffffff81111562000ebd5762000ebc62000d1b565b5b62000ecb8582860162000e4f565b925050602083013567ffffffffffffffff81111562000eef5762000eee62000d1b565b5b62000efd8582860162000e4f565b9150509250929050565b600073ffffffffffffffffffffffffffffffffffffffff82169050919050565b600062000f348262000f07565b9050919050565b62000f468162000f27565b82525050565b600060208201905062000f63600083018462000f3b565b92915050565b62000f748162000f27565b811462000f8057600080fd5b50565b60008135905062000f948162000f69565b92915050565b6000819050919050565b62000faf8162000f9a565b811462000fbb57600080fd5b50565b60008135905062000fcf8162000fa4565b92915050565b6000806040838503121562000fef5762000fee62000d16565b5b600062000fff8582860162000f83565b9250506020620010128582860162000fbe565b9150509250929050565b600081519050919050565b600082825260208201905092915050565b60005b83811015620010585780820151818401526020810190506200103b565b8381111562001068576000848401525b50505050565b60006200107b826200101c565b62001087818562001027565b93506200109981856020860162001038565b620010a48162000d2a565b840191505092915050565b60006020820190508181036000830152620010cb81846200106e565b905092915050565b600060208284031215620010ec57620010eb62000d16565b5b6000620010fc8482850162000f83565b91505092915050565b620011108162000f9a565b82525050565b60006020820190506200112d600083018462001105565b92915050565b600080604083850312156200114d576200114c62000d16565b5b60006200115d8582860162000f83565b925050602083013567ffffffffffffffff81111562001181576200118062000d1b565b5b6200118f8582860162000e4f565b9150509250929050565b600081519050919050565b600082825260208201905092915050565b6000819050602082019050919050565b620011d08162000f27565b82525050565b6000819050919050565b600062001201620011fb620011f58462000f07565b620011d6565b62000f07565b9050919050565b60006200121582620011e0565b9050919050565b6000620012298262001208565b9050919050565b6200123b816200121c565b82525050565b606082016000820151620012596000850182620011c5565b5060208201516200126e6020850182620011c5565b50604082015162001283604085018262001230565b50505050565b600062001297838362001241565b60608301905092915050565b6000602082019050919050565b6000620012bd8262001199565b620012c98185620011a4565b9350620012d683620011b5565b8060005b838110156200130d578151620012f1888262001289565b9750620012fe83620012a3565b925050600181019050620012da565b5085935050505092915050565b60006020820190508181036000830152620013368184620012b0565b905092915050565b600081905092915050565b600062001356826200101c565b6200136281856200133e565b93506200137481856020860162001038565b80840191505092915050565b60006200138e828462001349565b915081905092915050565b60006040820190508181036000830152620013b581856200106e565b90508181036020830152620013cb81846200106e565b90509392505050565b6000604082019050620013eb600083018562000f3b565b620013fa602083018462000f3b565b9392505050565b600062001418620014128462000dbf565b62000da0565b90508281526020810184848401111562001437576200143662000d25565b5b6200144484828562001038565b509392505050565b600082601f83011262001464576200146362000d20565b5b81516200147684826020860162001401565b91505092915050565b60006020828403121562001498576200149762000d16565b5b600082015167ffffffffffffffff811115620014b957620014b862000d1b565b5b620014c7848285016200144c565b91505092915050565b600081519050620014e18162000fa4565b92915050565b6000602082840312156200150057620014ff62000d16565b5b60006200151084828501620014d0565b91505092915050565b7f4e487b7100000000000000000000000000000000000000000000000000000000600052601160045260246000fd5b6000620015558262000f9a565b9150620015628362000f9a565b9250827fffffffffffffffffffffffffffffffffffffffffffffffffffffffffffffffff038211156200159a576200159962001519565b5b828201905092915050565b7f546f6b656e204944206e6f7420666f756e640000000000000000000000000000600082015250565b6000620015dd60128362001027565b9150620015ea82620015a5565b602082019050919050565b600060208201905081810360008301526200161081620015ce565b9050919050565b60006040820190506200162e600083018562000f3b565b6200163d602083018462001105565b9392505050565b7f4e487b7100000000000000000000000000000000000000000000000000000000600052603260045260246000fd5b6000620016808262000f9a565b91507fffffffffffffffffffffffffffffffffffffffffffffffffffffffffffffffff8203620016b557620016b462001519565b5b60018201905091905056fe60806040523480156200001157600080fd5b50604051620039b5380380620039b58339818101604052810190620000379190620003b0565b818181600090805190602001906200005192919062000163565b5080600190805190602001906200006a92919062000163565b5050506200008d620000816200009560201b60201c565b6200009d60201b60201c565b505062000499565b600033905090565b6000600a60009054906101000a900473ffffffffffffffffffffffffffffffffffffffff16905081600a60006101000a81548173ffffffffffffffffffffffffffffffffffffffff021916908373ffffffffffffffffffffffffffffffffffffffff1602179055508173ffffffffffffffffffffffffffffffffffffffff168173ffffffffffffffffffffffffffffffffffffffff167f8be0079c531659141344cd1fd0a4f28419497f9722a3daafe3b4186f6b6457e060405160405180910390a35050565b828054620001719062000464565b90600052602060002090601f016020900481019282620001955760008555620001e1565b82601f10620001b057805160ff1916838001178555620001e1565b82800160010185558215620001e1579182015b82811115620001e0578251825591602001919060010190620001c3565b5b509050620001f09190620001f4565b5090565b5b808211156200020f576000816000905550600101620001f5565b5090565b6000604051905090565b600080fd5b600080fd5b600080fd5b600080fd5b6000601f19601f8301169050919050565b7f4e487b7100000000000000000000000000000000000000000000000000000000600052604160045260246000fd5b6200027c8262000231565b810181811067ffffffffffffffff821117156200029e576200029d62000242565b5b80604052505050565b6000620002b362000213565b9050620002c1828262000271565b919050565b600067ffffffffffffffff821115620002e457620002e362000242565b5b620002ef8262000231565b9050602081019050919050565b60005b838110156200031c578082015181840152602081019050620002ff565b838111156200032c576000848401525b50505050565b6000620003496200034384620002c6565b620002a7565b9050828152602081018484840111156200036857620003676200022c565b5b62000375848285620002fc565b509392505050565b600082601f83011262000395576200039462000227565b5b8151620003a784826020860162000332565b91505092915050565b60008060408385031215620003ca57620003c96200021d565b5b600083015167ffffffffffffffff811115620003eb57620003ea62000222565b5b620003f9858286016200037d565b925050602083015167ffffffffffffffff8111156200041d576200041c62000222565b5b6200042b858286016200037d565b9150509250929050565b7f4e487b7100000000000000000000000000000000000000000000000000000000600052602260045260246000fd5b600060028204905060018216806200047d57607f821691505b60208210810362000493576200049262000435565b5b50919050565b61350c80620004a96000396000f3fe608060405234801561001057600080fd5b50600436106101375760003560e01c806370a08231116100b8578063b88d4fde1161007c578063b88d4fde1461034e578063c87b56dd1461036a578063cc4f08911461039a578063d85d3d27146103ca578063e985e9c5146103fa578063f2fde38b1461042a57610137565b806370a08231146102bc578063715018a6146102ec5780638da5cb5b146102f657806395d89b4114610314578063a22cb4651461033257610137565b806323b872dd116100ff57806323b872dd146101f45780632f745c591461021057806342842e0e146102405780634f6ccce71461025c5780636352211e1461028c57610137565b806301ffc9a71461013c57806306fdde031461016c578063081812fc1461018a578063095ea7b3146101ba57806318160ddd146101d6575b600080fd5b61015660048036038101906101519190612156565b610446565b604051610163919061219e565b60405180910390f35b6101746104c0565b6040516101819190612252565b60405180910390f35b6101a4600480360381019061019f91906122aa565b610552565b6040516101b19190612318565b60405180910390f35b6101d460048036038101906101cf919061235f565b6105d7565b005b6101de6106ee565b6040516101eb91906123ae565b60405180910390f35b61020e600480360381019061020991906123c9565b6106fb565b005b61022a6004803603810190610225919061235f565b61075b565b60405161023791906123ae565b60405180910390f35b61025a600480360381019061025591906123c9565b610800565b005b610276600480360381019061027191906122aa565b610820565b60405161028391906123ae565b60405180910390f35b6102a660048036038101906102a191906122aa565b610891565b6040516102b39190612318565b60405180910390f35b6102d660048036038101906102d1919061241c565b610942565b6040516102e391906123ae565b60405180910390f35b6102f46109f9565b005b6102fe610a81565b60405161030b9190612318565b60405180910390f35b61031c610aab565b6040516103299190612252565b60405180910390f35b61034c60048036038101906103479190612475565b610b3d565b005b610368600480360381019061036391906125ea565b610b53565b005b610384600480360381019061037f91906122aa565b610bb5565b6040516103919190612252565b60405180910390f35b6103b460048036038101906103af91906122aa565b610c5c565b6040516103c19190612252565b60405180910390f35b6103e460048036038101906103df919061270e565b610d01565b6040516103f191906123ae565b60405180910390f35b610414600480360381019061040f9190612757565b610d55565b604051610421919061219e565b60405180910390f35b610444600480360381019061043f919061241c565b610de9565b005b60007f780e9d63000000000000000000000000000000000000000000000000000000007bffffffffffffffffffffffffffffffffffffffffffffffffffffffff1916827bffffffffffffffffffffffffffffffffffffffffffffffffffffffff191614806104b957506104b882610ee0565b5b9050919050565b6060600080546104cf906127c6565b80601f01602080910402602001604051908101604052809291908181526020018280546104fb906127c6565b80156105485780601f1061051d57610100808354040283529160200191610548565b820191906000526020600020905b81548152906001019060200180831161052b57829003601f168201915b5050505050905090565b600061055d82610fc2565b61059c576040517f08c379a000000000000000000000000000000000000000000000000000000000815260040161059390612869565b60405180910390fd5b6004600083815260200190815260200160002060009054906101000a900473ffffffffffffffffffffffffffffffffffffffff169050919050565b60006105e282610891565b90508073ffffffffffffffffffffffffffffffffffffffff168373ffffffffffffffffffffffffffffffffffffffff1603610652576040517f08c379a0000000000000000000000000000000000000000000000000000000008152600401610649906128fb565b60405180910390fd5b8073ffffffffffffffffffffffffffffffffffffffff1661067161102e565b73ffffffffffffffffffffffffffffffffffffffff1614806106a0575061069f8161069a61102e565b610d55565b5b6106df576040517f08c379a00000000000000000000000000000000000000000000000000000000081526004016106d69061298d565b60405180910390fd5b6106e98383611036565b505050565b6000600880549050905090565b61070c61070661102e565b826110ef565b61074b576040517f08c379a000000000000000000000000000000000000000000000000000000000815260040161074290612a1f565b60405180910390fd5b6107568383836111cd565b505050565b600061076683610942565b82106107a7576040517f08c379a000000000000000000000000000000000000000000000000000000000815260040161079e90612ab1565b60405180910390fd5b600660008473ffffffffffffffffffffffffffffffffffffffff1673ffffffffffffffffffffffffffffffffffffffff168152602001908152602001600020600083815260200190815260200160002054905092915050565b61081b83838360405180602001604052806000815250610b53565b505050565b600061082a6106ee565b821061086b576040517f08c379a000000000000000000000000000000000000000000000000000000000815260040161086290612b43565b60405180910390fd5b6008828154811061087f5761087e612b63565b5b90600052602060002001549050919050565b6000806002600084815260200190815260200160002060009054906101000a900473ffffffffffffffffffffffffffffffffffffffff169050600073ffffffffffffffffffffffffffffffffffffffff168173ffffffffffffffffffffffffffffffffffffffff1603610939576040517f08c379a000000000000000000000000000000000000000000000000000000000815260040161093090612c04565b60405180910390fd5b80915050919050565b60008073ffffffffffffffffffffffffffffffffffffffff168273ffffffffffffffffffffffffffffffffffffffff16036109b2576040517f08c379a00000000000000000000000000000000000000000000000000000000081526004016109a990612c96565b60405180910390fd5b600360008373ffffffffffffffffffffffffffffffffffffffff1673ffffffffffffffffffffffffffffffffffffffff168152602001908152602001600020549050919050565b610a0161102e565b73ffffffffffffffffffffffffffffffffffffffff16610a1f610a81565b73ffffffffffffffffffffffffffffffffffffffff1614610a75576040517f08c379a0000000000000000000000000000000000000000000000000000000008152600401610a6c90612d02565b60405180910390fd5b610a7f6000611433565b565b6000600a60009054906101000a900473ffffffffffffffffffffffffffffffffffffffff16905090565b606060018054610aba906127c6565b80601f0160208091040260200160405190810160405280929190818152602001828054610ae6906127c6565b8015610b335780601f10610b0857610100808354040283529160200191610b33565b820191906000526020600020905b815481529060010190602001808311610b1657829003601f168201915b5050505050905090565b610b4f610b4861102e565b83836114f9565b5050565b610b64610b5e61102e565b836110ef565b610ba3576040517f08c379a0000000000000000000000000000000000000000000000000000000008152600401610b9a90612a1f565b60405180910390fd5b610baf84848484611665565b50505050565b6060610bc082610fc2565b610bff576040517f08c379a0000000000000000000000000000000000000000000000000000000008152600401610bf690612d94565b60405180910390fd5b6000610c096116c1565b90506000815111610c295760405180602001604052806000815250610c54565b80610c33846116d8565b604051602001610c44929190612df0565b6040516020818303038152906040525b915050919050565b6060600b60008381526020019081526020016000208054610c7c906127c6565b80601f0160208091040260200160405190810160405280929190818152602001828054610ca8906127c6565b8015610cf55780601f10610cca57610100808354040283529160200191610cf5565b820191906000526020600020905b815481529060010190602001808311610cd857829003601f168201915b50505050509050919050565b6000806001610d0e6106ee565b610d189190612e43565b905082600b60008381526020019081526020016000209080519060200190610d41929190612047565b50610d4c3382611838565b80915050919050565b6000600560008473ffffffffffffffffffffffffffffffffffffffff1673ffffffffffffffffffffffffffffffffffffffff16815260200190815260200160002060008373ffffffffffffffffffffffffffffffffffffffff1673ffffffffffffffffffffffffffffffffffffffff16815260200190815260200160002060009054906101000a900460ff16905092915050565b610df161102e565b73ffffffffffffffffffffffffffffffffffffffff16610e0f610a81565b73ffffffffffffffffffffffffffffffffffffffff1614610e65576040517f08c379a0000000000000000000000000000000000000000000000000000000008152600401610e5c90612d02565b60405180910390fd5b600073ffffffffffffffffffffffffffffffffffffffff168173ffffffffffffffffffffffffffffffffffffffff1603610ed4576040517f08c379a0000000000000000000000000000000000000000000000000000000008152600401610ecb90612f0b565b60405180910390fd5b610edd81611433565b50565b60007f80ac58cd000000000000000000000000000000000000000000000000000000007bffffffffffffffffffffffffffffffffffffffffffffffffffffffff1916827bffffffffffffffffffffffffffffffffffffffffffffffffffffffff19161480610fab57507f5b5e139f000000000000000000000000000000000000000000000000000000007bffffffffffffffffffffffffffffffffffffffffffffffffffffffff1916827bffffffffffffffffffffffffffffffffffffffffffffffffffffffff1916145b80610fbb5750610fba82611a11565b5b9050919050565b60008073ffffffffffffffffffffffffffffffffffffffff166002600084815260200190815260200160002060009054906101000a900473ffffffffffffffffffffffffffffffffffffffff1673ffffffffffffffffffffffffffffffffffffffff1614159050919050565b600033905090565b816004600083815260200190815260200160002060006101000a81548173ffffffffffffffffffffffffffffffffffffffff021916908373ffffffffffffffffffffffffffffffffffffffff160217905550808273ffffffffffffffffffffffffffffffffffffffff166110a983610891565b73ffffffffffffffffffffffffffffffffffffffff167f8c5be1e5ebec7d5bd14f71427d1e84f3dd0314c0f7b2291e5b200ac8c7c3b92560405160405180910390a45050565b60006110fa82610fc2565b611139576040517f08c379a000000000000000000000000000000000000000000000000000000000815260040161113090612f9d565b60405180910390fd5b600061114483610891565b90508073ffffffffffffffffffffffffffffffffffffffff168473ffffffffffffffffffffffffffffffffffffffff1614806111b357508373ffffffffffffffffffffffffffffffffffffffff1661119b84610552565b73ffffffffffffffffffffffffffffffffffffffff16145b806111c457506111c38185610d55565b5b91505092915050565b8273ffffffffffffffffffffffffffffffffffffffff166111ed82610891565b73ffffffffffffffffffffffffffffffffffffffff1614611243576040517f08c379a000000000000000000000000000000000000000000000000000000000815260040161123a9061302f565b60405180910390fd5b600073ffffffffffffffffffffffffffffffffffffffff168273ffffffffffffffffffffffffffffffffffffffff16036112b2576040517f08c379a00000000000000000000000000000000000000000000000000000000081526004016112a9906130c1565b60405180910390fd5b6112bd838383611a7b565b6112c8600082611036565b6001600360008573ffffffffffffffffffffffffffffffffffffffff1673ffffffffffffffffffffffffffffffffffffffff168152602001908152602001600020600082825461131891906130e1565b925050819055506001600360008473ffffffffffffffffffffffffffffffffffffffff1673ffffffffffffffffffffffffffffffffffffffff168152602001908152602001600020600082825461136f9190612e43565b92505081905550816002600083815260200190815260200160002060006101000a81548173ffffffffffffffffffffffffffffffffffffffff021916908373ffffffffffffffffffffffffffffffffffffffff160217905550808273ffffffffffffffffffffffffffffffffffffffff168473ffffffffffffffffffffffffffffffffffffffff167fddf252ad1be2c89b69c2b068fc378daa952ba7f163c4a11628f55a4df523b3ef60405160405180910390a461142e838383611b8d565b505050565b6000600a60009054906101000a900473ffffffffffffffffffffffffffffffffffffffff16905081600a60006101000a81548173ffffffffffffffffffffffffffffffffffffffff021916908373ffffffffffffffffffffffffffffffffffffffff1602179055508173ffffffffffffffffffffffffffffffffffffffff168173ffffffffffffffffffffffffffffffffffffffff167f8be0079c531659141344cd1fd0a4f28419497f9722a3daafe3b4186f6b6457e060405160405180910390a35050565b8173ffffffffffffffffffffffffffffffffffffffff168373ffffffffffffffffffffffffffffffffffffffff1603611567576040517f08c379a000000000000000000000000000000000000000000000000000000000815260040161155e90613161565b60405180910390fd5b80600560008573ffffffffffffffffffffffffffffffffffffffff1673ffffffffffffffffffffffffffffffffffffffff16815260200190815260200160002060008473ffffffffffffffffffffffffffffffffffffffff1673ffffffffffffffffffffffffffffffffffffffff16815260200190815260200160002060006101000a81548160ff0219169083151502179055508173ffffffffffffffffffffffffffffffffffffffff168373ffffffffffffffffffffffffffffffffffffffff167f17307eab39ab6107e8899845ad3d59bd9653f200f220920489ca2b5937696c3183604051611658919061219e565b60405180910390a3505050565b6116708484846111cd565b61167c84848484611b92565b6116bb576040517f08c379a00000000000000000000000000000000000000000000000000000000081526004016116b2906131f3565b60405180910390fd5b50505050565b606060405180602001604052806000815250905090565b60606000820361171f576040518060400160405280600181526020017f30000000000000000000000000000000000000000000000000000000000000008152509050611833565b600082905060005b6000821461175157808061173a90613213565b915050600a8261174a919061328a565b9150611727565b60008167ffffffffffffffff81111561176d5761176c6124bf565b5b6040519080825280601f01601f19166020018201604052801561179f5781602001600182028036833780820191505090505b5090505b6000851461182c576001826117b891906130e1565b9150600a856117c791906132bb565b60306117d39190612e43565b60f81b8183815181106117e9576117e8612b63565b5b60200101907effffffffffffffffffffffffffffffffffffffffffffffffffffffffffffff1916908160001a905350600a85611825919061328a565b94506117a3565b8093505050505b919050565b600073ffffffffffffffffffffffffffffffffffffffff168273ffffffffffffffffffffffffffffffffffffffff16036118a7576040517f08c379a000000000000000000000000000000000000000000000000000000000815260040161189e90613338565b60405180910390fd5b6118b081610fc2565b156118f0576040517f08c379a00000000000000000000000000000000000000000000000000000000081526004016118e7906133a4565b60405180910390fd5b6118fc60008383611a7b565b6001600360008473ffffffffffffffffffffffffffffffffffffffff1673ffffffffffffffffffffffffffffffffffffffff168152602001908152602001600020600082825461194c9190612e43565b92505081905550816002600083815260200190815260200160002060006101000a81548173ffffffffffffffffffffffffffffffffffffffff021916908373ffffffffffffffffffffffffffffffffffffffff160217905550808273ffffffffffffffffffffffffffffffffffffffff16600073ffffffffffffffffffffffffffffffffffffffff167fddf252ad1be2c89b69c2b068fc378daa952ba7f163c4a11628f55a4df523b3ef60405160405180910390a4611a0d60008383611b8d565b5050565b60007f01ffc9a7000000000000000000000000000000000000000000000000000000007bffffffffffffffffffffffffffffffffffffffffffffffffffffffff1916827bffffffffffffffffffffffffffffffffffffffffffffffffffffffff1916149050919050565b611a86838383611d19565b600073ffffffffffffffffffffffffffffffffffffffff168373ffffffffffffffffffffffffffffffffffffffff1603611ac857611ac381611d1e565b611b07565b8173ffffffffffffffffffffffffffffffffffffffff168373ffffffffffffffffffffffffffffffffffffffff1614611b0657611b058382611d67565b5b5b600073ffffffffffffffffffffffffffffffffffffffff168273ffffffffffffffffffffffffffffffffffffffff1603611b4957611b4481611ed4565b611b88565b8273ffffffffffffffffffffffffffffffffffffffff168273ffffffffffffffffffffffffffffffffffffffff1614611b8757611b868282611fa5565b5b5b505050565b505050565b6000611bb38473ffffffffffffffffffffffffffffffffffffffff16612024565b15611d0c578373ffffffffffffffffffffffffffffffffffffffff1663150b7a02611bdc61102e565b8786866040518563ffffffff1660e01b8152600401611bfe9493929190613419565b6020604051808303816000875af1925050508015611c3a57506040513d601f19601f82011682018060405250810190611c37919061347a565b60015b611cbc573d8060008114611c6a576040519150601f19603f3d011682016040523d82523d6000602084013e611c6f565b606091505b506000815103611cb4576040517f08c379a0000000000000000000000000000000000000000000000000000000008152600401611cab906131f3565b60405180910390fd5b805181602001fd5b63150b7a0260e01b7bffffffffffffffffffffffffffffffffffffffffffffffffffffffff1916817bffffffffffffffffffffffffffffffffffffffffffffffffffffffff191614915050611d11565b600190505b949350505050565b505050565b6008805490506009600083815260200190815260200160002081905550600881908060018154018082558091505060019003906000526020600020016000909190919091505550565b60006001611d7484610942565b611d7e91906130e1565b9050600060076000848152602001908152602001600020549050818114611e63576000600660008673ffffffffffffffffffffffffffffffffffffffff1673ffffffffffffffffffffffffffffffffffffffff168152602001908152602001600020600084815260200190815260200160002054905080600660008773ffffffffffffffffffffffffffffffffffffffff1673ffffffffffffffffffffffffffffffffffffffff168152602001908152602001600020600084815260200190815260200160002081905550816007600083815260200190815260200160002081905550505b6007600084815260200190815260200160002060009055600660008573ffffffffffffffffffffffffffffffffffffffff1673ffffffffffffffffffffffffffffffffffffffff16815260200190815260200160002060008381526020019081526020016000206000905550505050565b60006001600880549050611ee891906130e1565b9050600060096000848152602001908152602001600020549050600060088381548110611f1857611f17612b63565b5b906000526020600020015490508060088381548110611f3a57611f39612b63565b5b906000526020600020018190555081600960008381526020019081526020016000208190555060096000858152602001908152602001600020600090556008805480611f8957611f886134a7565b5b6001900381819060005260206000200160009055905550505050565b6000611fb083610942565b905081600660008573ffffffffffffffffffffffffffffffffffffffff1673ffffffffffffffffffffffffffffffffffffffff168152602001908152602001600020600083815260200190815260200160002081905550806007600084815260200190815260200160002081905550505050565b6000808273ffffffffffffffffffffffffffffffffffffffff163b119050919050565b828054612053906127c6565b90600052602060002090601f01602090048101928261207557600085556120bc565b82601f1061208e57805160ff19168380011785556120bc565b828001600101855582156120bc579182015b828111156120bb5782518255916020019190600101906120a0565b5b5090506120c991906120cd565b5090565b5b808211156120e65760008160009055506001016120ce565b5090565b6000604051905090565b600080fd5b600080fd5b60007fffffffff0000000000000000000000000000000000000000000000000000000082169050919050565b612133816120fe565b811461213e57600080fd5b50565b6000813590506121508161212a565b92915050565b60006020828403121561216c5761216b6120f4565b5b600061217a84828501612141565b91505092915050565b60008115159050919050565b61219881612183565b82525050565b60006020820190506121b3600083018461218f565b92915050565b600081519050919050565b600082825260208201905092915050565b60005b838110156121f35780820151818401526020810190506121d8565b83811115612202576000848401525b50505050565b6000601f19601f8301169050919050565b6000612224826121b9565b61222e81856121c4565b935061223e8185602086016121d5565b61224781612208565b840191505092915050565b6000602082019050818103600083015261226c8184612219565b905092915050565b6000819050919050565b61228781612274565b811461229257600080fd5b50565b6000813590506122a48161227e565b92915050565b6000602082840312156122c0576122bf6120f4565b5b60006122ce84828501612295565b91505092915050565b600073ffffffffffffffffffffffffffffffffffffffff82169050919050565b6000612302826122d7565b9050919050565b612312816122f7565b82525050565b600060208201905061232d6000830184612309565b92915050565b61233c816122f7565b811461234757600080fd5b50565b60008135905061235981612333565b92915050565b60008060408385031215612376576123756120f4565b5b60006123848582860161234a565b925050602061239585828601612295565b9150509250929050565b6123a881612274565b82525050565b60006020820190506123c3600083018461239f565b92915050565b6000806000606084860312156123e2576123e16120f4565b5b60006123f08682870161234a565b93505060206124018682870161234a565b925050604061241286828701612295565b9150509250925092565b600060208284031215612432576124316120f4565b5b60006124408482850161234a565b91505092915050565b61245281612183565b811461245d57600080fd5b50565b60008135905061246f81612449565b92915050565b6000806040838503121561248c5761248b6120f4565b5b600061249a8582860161234a565b92505060206124ab85828601612460565b9150509250929050565b600080fd5b600080fd5b7f4e487b7100000000000000000000000000000000000000000000000000000000600052604160045260246000fd5b6124f782612208565b810181811067ffffffffffffffff82111715612516576125156124bf565b5b80604052505050565b60006125296120ea565b905061253582826124ee565b919050565b600067ffffffffffffffff821115612555576125546124bf565b5b61255e82612208565b9050602081019050919050565b82818337600083830152505050565b600061258d6125888461253a565b61251f565b9050828152602081018484840111156125a9576125a86124ba565b5b6125b484828561256b565b509392505050565b600082601f8301126125d1576125d06124b5565b5b81356125e184826020860161257a565b91505092915050565b60008060008060808587031215612604576126036120f4565b5b60006126128782880161234a565b94505060206126238782880161234a565b935050604061263487828801612295565b925050606085013567ffffffffffffffff811115612655576126546120f9565b5b612661878288016125bc565b91505092959194509250565b600067ffffffffffffffff821115612688576126876124bf565b5b61269182612208565b9050602081019050919050565b60006126b16126ac8461266d565b61251f565b9050828152602081018484840111156126cd576126cc6124ba565b5b6126d884828561256b565b509392505050565b600082601f8301126126f5576126f46124b5565b5b813561270584826020860161269e565b91505092915050565b600060208284031215612724576127236120f4565b5b600082013567ffffffffffffffff811115612742576127416120f9565b5b61274e848285016126e0565b91505092915050565b6000806040838503121561276e5761276d6120f4565b5b600061277c8582860161234a565b925050602061278d8582860161234a565b9150509250929050565b7f4e487b7100000000000000000000000000000000000000000000000000000000600052602260045260246000fd5b600060028204905060018216806127de57607f821691505b6020821081036127f1576127f0612797565b5b50919050565b7f4552433732313a20617070726f76656420717565727920666f72206e6f6e657860008201527f697374656e7420746f6b656e0000000000000000000000000000000000000000602082015250565b6000612853602c836121c4565b915061285e826127f7565b604082019050919050565b6000602082019050818103600083015261288281612846565b9050919050565b7f4552433732313a20617070726f76616c20746f2063757272656e74206f776e6560008201527f7200000000000000000000000000000000000000000000000000000000000000602082015250565b60006128e56021836121c4565b91506128f082612889565b604082019050919050565b60006020820190508181036000830152612914816128d8565b9050919050565b7f4552433732313a20617070726f76652063616c6c6572206973206e6f74206f7760008201527f6e6572206e6f7220617070726f76656420666f7220616c6c0000000000000000602082015250565b60006129776038836121c4565b91506129828261291b565b604082019050919050565b600060208201905081810360008301526129a68161296a565b9050919050565b7f4552433732313a207472616e736665722063616c6c6572206973206e6f74206f60008201527f776e6572206e6f7220617070726f766564000000000000000000000000000000602082015250565b6000612a096031836121c4565b9150612a14826129ad565b604082019050919050565b60006020820190508181036000830152612a38816129fc565b9050919050565b7f455243373231456e756d657261626c653a206f776e657220696e646578206f7560008201527f74206f6620626f756e6473000000000000000000000000000000000000000000602082015250565b6000612a9b602b836121c4565b9150612aa682612a3f565b604082019050919050565b60006020820190508181036000830152612aca81612a8e565b9050919050565b7f455243373231456e756d657261626c653a20676c6f62616c20696e646578206f60008201527f7574206f6620626f756e64730000000000000000000000000000000000000000602082015250565b6000612b2d602c836121c4565b9150612b3882612ad1565b604082019050919050565b60006020820190508181036000830152612b5c81612b20565b9050919050565b7f4e487b7100000000000000000000000000000000000000000000000000000000600052603260045260246000fd5b7f4552433732313a206f776e657220717565727920666f72206e6f6e657869737460008201527f656e7420746f6b656e0000000000000000000000000000000000000000000000602082015250565b6000612bee6029836121c4565b9150612bf982612b92565b604082019050919050565b60006020820190508181036000830152612c1d81612be1565b9050919050565b7f4552433732313a2062616c616e636520717565727920666f7220746865207a6560008201527f726f206164647265737300000000000000000000000000000000000000000000602082015250565b6000612c80602a836121c4565b9150612c8b82612c24565b604082019050919050565b60006020820190508181036000830152612caf81612c73565b9050919050565b7f4f776e61626c653a2063616c6c6572206973206e6f7420746865206f776e6572600082015250565b6000612cec6020836121c4565b9150612cf782612cb6565b602082019050919050565b60006020820190508181036000830152612d1b81612cdf565b9050919050565b7f4552433732314d657461646174613a2055524920717565727920666f72206e6f60008201527f6e6578697374656e7420746f6b656e0000000000000000000000000000000000602082015250565b6000612d7e602f836121c4565b9150612d8982612d22565b604082019050919050565b60006020820190508181036000830152612dad81612d71565b9050919050565b600081905092915050565b6000612dca826121b9565b612dd48185612db4565b9350612de48185602086016121d5565b80840191505092915050565b6000612dfc8285612dbf565b9150612e088284612dbf565b91508190509392505050565b7f4e487b7100000000000000000000000000000000000000000000000000000000600052601160045260246000fd5b6000612e4e82612274565b9150612e5983612274565b9250827fffffffffffffffffffffffffffffffffffffffffffffffffffffffffffffffff03821115612e8e57612e8d612e14565b5b828201905092915050565b7f4f776e61626c653a206e6577206f776e657220697320746865207a65726f206160008201527f6464726573730000000000000000000000000000000000000000000000000000602082015250565b6000612ef56026836121c4565b9150612f0082612e99565b604082019050919050565b60006020820190508181036000830152612f2481612ee8565b9050919050565b7f4552433732313a206f70657261746f7220717565727920666f72206e6f6e657860008201527f697374656e7420746f6b656e0000000000000000000000000000000000000000602082015250565b6000612f87602c836121c4565b9150612f9282612f2b565b604082019050919050565b60006020820190508181036000830152612fb681612f7a565b9050919050565b7f4552433732313a207472616e736665722066726f6d20696e636f72726563742060008201527f6f776e6572000000000000000000000000000000000000000000000000000000602082015250565b60006130196025836121c4565b915061302482612fbd565b604082019050919050565b600060208201905081810360008301526130488161300c565b9050919050565b7f4552433732313a207472616e7366657220746f20746865207a65726f2061646460008201527f7265737300000000000000000000000000000000000000000000000000000000602082015250565b60006130ab6024836121c4565b91506130b68261304f565b604082019050919050565b600060208201905081810360008301526130da8161309e565b9050919050565b60006130ec82612274565b91506130f783612274565b92508282101561310a57613109612e14565b5b828203905092915050565b7f4552433732313a20617070726f766520746f2063616c6c657200000000000000600082015250565b600061314b6019836121c4565b915061315682613115565b602082019050919050565b6000602082019050818103600083015261317a8161313e565b9050919050565b7f4552433732313a207472616e7366657220746f206e6f6e20455243373231526560008201527f63656976657220696d706c656d656e7465720000000000000000000000000000602082015250565b60006131dd6032836121c4565b91506131e882613181565b604082019050919050565b6000602082019050818103600083015261320c816131d0565b9050919050565b600061321e82612274565b91507fffffffffffffffffffffffffffffffffffffffffffffffffffffffffffffffff82036132505761324f612e14565b5b600182019050919050565b7f4e487b7100000000000000000000000000000000000000000000000000000000600052601260045260246000fd5b600061329582612274565b91506132a083612274565b9250826132b0576132af61325b565b5b828204905092915050565b60006132c682612274565b91506132d183612274565b9250826132e1576132e061325b565b5b828206905092915050565b7f4552433732313a206d696e7420746f20746865207a65726f2061646472657373600082015250565b60006133226020836121c4565b915061332d826132ec565b602082019050919050565b6000602082019050818103600083015261335181613315565b9050919050565b7f4552433732313a20746f6b656e20616c7265616479206d696e74656400000000600082015250565b600061338e601c836121c4565b915061339982613358565b602082019050919050565b600060208201905081810360008301526133bd81613381565b9050919050565b600081519050919050565b600082825260208201905092915050565b60006133eb826133c4565b6133f581856133cf565b93506134058185602086016121d5565b61340e81612208565b840191505092915050565b600060808201905061342e6000830187612309565b61343b6020830186612309565b613448604083018561239f565b818103606083015261345a81846133e0565b905095945050505050565b6000815190506134748161212a565b92915050565b6000602082840312156134905761348f6120f4565b5b600061349e84828501613465565b91505092915050565b7f4e487b7100000000000000000000000000000000000000000000000000000000600052603160045260246000fdfea26469706673582212209f878719e9fa2268be5cb8227b4e4a94f690a0d36bf9907e295ef6fdd7f8d6ba64736f6c634300080d0033a264697066735822122033b88c0561a8eefa6eda11378ab961f932d650210de5571828161868a8a36a5f64736f6c634300080d0033",
  "immutableReferences": {},
  "source": "// SPDX-License-Identifier: GPL-3.0\npragma solidity 0.8.13;\n\nimport \"./ERC721Token.sol\";\n\ncontract ERC721Factory {\n\n    event CollectionCreated(address contractAddress, address owner);\n    event Minted(address owner, uint256 tokenId);\n    \n    mapping(address => ERC721Token) private contracts;\n\n    Collection[] private collections;\n    struct Collection {\n        address contractAddress;\n        address owner;\n        ERC721Token token;\n    }\n     \n    mapping(address => mapping(uint256 => address)) private owners;\n    /*\n    address[] private contractAddresses;\n\n    \n\n    // ERC721 contract address => (tokenID => owner address)\n   \n    \n    // owner address => (ERC721 contract address => tableau de token id)\n    mapping(address => mapping(address => uint256[])) private balances;\n   \n*/\n    function deployCollection(string memory _name, string memory _symbol) external payable returns(address) {\n        bytes32 _salt = keccak256(abi.encodePacked(_name));\n        ERC721Token token = new ERC721Token{salt: _salt}(_name, _symbol);\n        address contractAddress = address(token);\n\n\n\n        contracts[contractAddress] = token;\n        collections.push(Collection(contractAddress, msg.sender, token));\n\n\n\n\n\n\n        emit CollectionCreated(contractAddress, msg.sender);\n\n        return contractAddress;\n    }\n\n    function getCollectionName(address _address) public view returns(string memory) {\n        return contracts[_address].name();\n    }\n\n    function getNextTokenId(address _address) public view returns(uint256) {\n        return contracts[_address].totalSupply() + 1;\n    }\n\n    function mint(address _contractAddress, string memory _cid) public {\n        uint256 tokenId = contracts[_contractAddress].mint(_cid);\n        owners[_contractAddress][tokenId] = msg.sender;\n\n        emit Minted(msg.sender, tokenId);\n    }\n\n    function getCIDbyTokenId(address _address, uint256 _tokenId) public view returns(string memory) {\n        return contracts[_address].getCIDbyTokenId(_tokenId);\n    }\n\n    function getOwnerAddressByTokenId(address _address, uint256 _tokenId) public view returns(address) {\n        require(owners[_address][_tokenId] != address(0), \"Token ID not found\");\n\n        return owners[_address][_tokenId];\n    }\n\n    function getOwnerCollections(address _owner) external view returns(Collection[] memory){\n        Collection[] memory tmp;\n        uint256 i;\n        for (uint256 index = 0; index < collections.length; index++) {\n            if(collections[index].token.balanceOf(_owner) > 0){\n                tmp[i] = collections[index];\n                i++;\n            }\n        }\n\n        return tmp;\n    }\n}\n",
  "sourcePath": "/Users/rchea/workspaces/alyra/marketplace/contracts/ERC721Factory.sol",
  "compiler": {
    "name": "solc",
    "version": "0.8.13+commit.abaa5c0e.Emscripten.clang"
  },
  "schemaVersion": "3.4.7",
  "updatedAt": "2022-05-16T22:34:35.603Z",
  "networkType": "ethereum",
  "devdoc": {
    "kind": "dev",
    "methods": {},
    "version": 1
  },
  "userdoc": {
    "kind": "user",
    "methods": {},
    "version": 1
  }
}