{
  "contractName": "ERC721Token",
  "abi": [
    {
      "inputs": [
        {
          "internalType": "string",
          "name": "name_",
          "type": "string"
        },
        {
          "internalType": "string",
          "name": "symbol_",
          "type": "string"
        }
      ],
      "stateMutability": "nonpayable",
      "type": "constructor"
    },
    {
      "anonymous": false,
      "inputs": [
        {
          "indexed": true,
          "internalType": "address",
          "name": "owner",
          "type": "address"
        },
        {
          "indexed": true,
          "internalType": "address",
          "name": "approved",
          "type": "address"
        },
        {
          "indexed": true,
          "internalType": "uint256",
          "name": "tokenId",
          "type": "uint256"
        }
      ],
      "name": "Approval",
      "type": "event"
    },
    {
      "anonymous": false,
      "inputs": [
        {
          "indexed": true,
          "internalType": "address",
          "name": "owner",
          "type": "address"
        },
        {
          "indexed": true,
          "internalType": "address",
          "name": "operator",
          "type": "address"
        },
        {
          "indexed": false,
          "internalType": "bool",
          "name": "approved",
          "type": "bool"
        }
      ],
      "name": "ApprovalForAll",
      "type": "event"
    },
    {
      "anonymous": false,
      "inputs": [
        {
          "indexed": false,
          "internalType": "address",
          "name": "owner",
          "type": "address"
        },
        {
          "indexed": false,
          "internalType": "uint256",
          "name": "tokenId",
          "type": "uint256"
        }
      ],
      "name": "Minted",
      "type": "event"
    },
    {
      "anonymous": false,
      "inputs": [
        {
          "indexed": false,
          "internalType": "uint256",
          "name": "tokenId",
          "type": "uint256"
        },
        {
          "indexed": false,
          "internalType": "uint256",
          "name": "price",
          "type": "uint256"
        }
      ],
      "name": "PriceEdited",
      "type": "event"
    },
    {
      "anonymous": false,
      "inputs": [
        {
          "indexed": true,
          "internalType": "address",
          "name": "from",
          "type": "address"
        },
        {
          "indexed": true,
          "internalType": "address",
          "name": "to",
          "type": "address"
        },
        {
          "indexed": true,
          "internalType": "uint256",
          "name": "tokenId",
          "type": "uint256"
        }
      ],
      "name": "Transfer",
      "type": "event"
    },
    {
      "inputs": [
        {
          "internalType": "address",
          "name": "owner",
          "type": "address"
        }
      ],
      "name": "balanceOf",
      "outputs": [
        {
          "internalType": "uint256",
          "name": "",
          "type": "uint256"
        }
      ],
      "stateMutability": "view",
      "type": "function"
    },
    {
      "inputs": [
        {
          "internalType": "uint256",
          "name": "tokenId",
          "type": "uint256"
        }
      ],
      "name": "getApproved",
      "outputs": [
        {
          "internalType": "address",
          "name": "",
          "type": "address"
        }
      ],
      "stateMutability": "view",
      "type": "function"
    },
    {
      "inputs": [
        {
          "internalType": "address",
          "name": "owner",
          "type": "address"
        },
        {
          "internalType": "address",
          "name": "operator",
          "type": "address"
        }
      ],
      "name": "isApprovedForAll",
      "outputs": [
        {
          "internalType": "bool",
          "name": "",
          "type": "bool"
        }
      ],
      "stateMutability": "view",
      "type": "function"
    },
    {
      "inputs": [],
      "name": "name",
      "outputs": [
        {
          "internalType": "string",
          "name": "",
          "type": "string"
        }
      ],
      "stateMutability": "view",
      "type": "function"
    },
    {
      "inputs": [
        {
          "internalType": "uint256",
          "name": "tokenId",
          "type": "uint256"
        }
      ],
      "name": "ownerOf",
      "outputs": [
        {
          "internalType": "address",
          "name": "",
          "type": "address"
        }
      ],
      "stateMutability": "view",
      "type": "function"
    },
    {
      "inputs": [
        {
          "internalType": "address",
          "name": "from",
          "type": "address"
        },
        {
          "internalType": "address",
          "name": "to",
          "type": "address"
        },
        {
          "internalType": "uint256",
          "name": "tokenId",
          "type": "uint256"
        }
      ],
      "name": "safeTransferFrom",
      "outputs": [],
      "stateMutability": "nonpayable",
      "type": "function"
    },
    {
      "inputs": [
        {
          "internalType": "address",
          "name": "from",
          "type": "address"
        },
        {
          "internalType": "address",
          "name": "to",
          "type": "address"
        },
        {
          "internalType": "uint256",
          "name": "tokenId",
          "type": "uint256"
        },
        {
          "internalType": "bytes",
          "name": "_data",
          "type": "bytes"
        }
      ],
      "name": "safeTransferFrom",
      "outputs": [],
      "stateMutability": "nonpayable",
      "type": "function"
    },
    {
      "inputs": [
        {
          "internalType": "address",
          "name": "operator",
          "type": "address"
        },
        {
          "internalType": "bool",
          "name": "approved",
          "type": "bool"
        }
      ],
      "name": "setApprovalForAll",
      "outputs": [],
      "stateMutability": "nonpayable",
      "type": "function"
    },
    {
      "inputs": [
        {
          "internalType": "bytes4",
          "name": "interfaceId",
          "type": "bytes4"
        }
      ],
      "name": "supportsInterface",
      "outputs": [
        {
          "internalType": "bool",
          "name": "",
          "type": "bool"
        }
      ],
      "stateMutability": "view",
      "type": "function"
    },
    {
      "inputs": [],
      "name": "symbol",
      "outputs": [
        {
          "internalType": "string",
          "name": "",
          "type": "string"
        }
      ],
      "stateMutability": "view",
      "type": "function"
    },
    {
      "inputs": [
        {
          "internalType": "uint256",
          "name": "index",
          "type": "uint256"
        }
      ],
      "name": "tokenByIndex",
      "outputs": [
        {
          "internalType": "uint256",
          "name": "",
          "type": "uint256"
        }
      ],
      "stateMutability": "view",
      "type": "function"
    },
    {
      "inputs": [
        {
          "internalType": "address",
          "name": "owner",
          "type": "address"
        },
        {
          "internalType": "uint256",
          "name": "index",
          "type": "uint256"
        }
      ],
      "name": "tokenOfOwnerByIndex",
      "outputs": [
        {
          "internalType": "uint256",
          "name": "",
          "type": "uint256"
        }
      ],
      "stateMutability": "view",
      "type": "function"
    },
    {
      "inputs": [],
      "name": "totalSupply",
      "outputs": [
        {
          "internalType": "uint256",
          "name": "",
          "type": "uint256"
        }
      ],
      "stateMutability": "view",
      "type": "function"
    },
    {
      "inputs": [
        {
          "internalType": "address",
          "name": "from",
          "type": "address"
        },
        {
          "internalType": "address",
          "name": "to",
          "type": "address"
        },
        {
          "internalType": "uint256",
          "name": "tokenId",
          "type": "uint256"
        }
      ],
      "name": "transferFrom",
      "outputs": [],
      "stateMutability": "nonpayable",
      "type": "function"
    },
    {
      "inputs": [
        {
          "internalType": "address",
          "name": "_owner",
          "type": "address"
        },
        {
          "internalType": "string",
          "name": "_uri",
          "type": "string"
        }
      ],
      "name": "mint",
      "outputs": [
        {
          "internalType": "uint256",
          "name": "",
          "type": "uint256"
        }
      ],
      "stateMutability": "nonpayable",
      "type": "function"
    },
    {
      "inputs": [
        {
          "internalType": "uint256",
          "name": "tokenId",
          "type": "uint256"
        }
      ],
      "name": "tokenURI",
      "outputs": [
        {
          "internalType": "string",
          "name": "",
          "type": "string"
        }
      ],
      "stateMutability": "view",
      "type": "function"
    },
    {
      "inputs": [
        {
          "internalType": "address",
          "name": "_to",
          "type": "address"
        },
        {
          "internalType": "uint256",
          "name": "_tokenId",
          "type": "uint256"
        }
      ],
      "name": "approve",
      "outputs": [],
      "stateMutability": "nonpayable",
      "type": "function"
    },
    {
      "inputs": [
        {
          "internalType": "uint256",
          "name": "_tokenId",
          "type": "uint256"
        }
      ],
      "name": "getAddressApprovalsByTokenId",
      "outputs": [
        {
          "internalType": "address",
          "name": "",
          "type": "address"
        }
      ],
      "stateMutability": "view",
      "type": "function"
    },
    {
      "inputs": [
        {
          "internalType": "address",
          "name": "spender",
          "type": "address"
        },
        {
          "internalType": "uint256",
          "name": "tokenId",
          "type": "uint256"
        }
      ],
      "name": "isApprovedOrOwner",
      "outputs": [
        {
          "internalType": "bool",
          "name": "",
          "type": "bool"
        }
      ],
      "stateMutability": "view",
      "type": "function"
    },
    {
      "inputs": [
        {
          "internalType": "uint256",
          "name": "_tokenId",
          "type": "uint256"
        },
        {
          "internalType": "uint256",
          "name": "_price",
          "type": "uint256"
        }
      ],
      "name": "setPrice",
      "outputs": [],
      "stateMutability": "nonpayable",
      "type": "function"
    },
    {
      "inputs": [
        {
          "internalType": "uint256",
          "name": "_tokenId",
          "type": "uint256"
        }
      ],
      "name": "getPrice",
      "outputs": [
        {
          "internalType": "uint256",
          "name": "",
          "type": "uint256"
        }
      ],
      "stateMutability": "view",
      "type": "function"
    }
  ],
  "bytecode": "0x60806040523480156200001157600080fd5b5060405162003727380380620037278339818101604052810190620000379190620002c2565b818181600090805190602001906200005192919062000075565b5080600190805190602001906200006a92919062000075565b5050505050620003ab565b828054620000839062000376565b90600052602060002090601f016020900481019282620000a75760008555620000f3565b82601f10620000c257805160ff1916838001178555620000f3565b82800160010185558215620000f3579182015b82811115620000f2578251825591602001919060010190620000d5565b5b50905062000102919062000106565b5090565b5b808211156200012157600081600090555060010162000107565b5090565b6000604051905090565b600080fd5b600080fd5b600080fd5b600080fd5b6000601f19601f8301169050919050565b7f4e487b7100000000000000000000000000000000000000000000000000000000600052604160045260246000fd5b6200018e8262000143565b810181811067ffffffffffffffff82111715620001b057620001af62000154565b5b80604052505050565b6000620001c562000125565b9050620001d3828262000183565b919050565b600067ffffffffffffffff821115620001f657620001f562000154565b5b620002018262000143565b9050602081019050919050565b60005b838110156200022e57808201518184015260208101905062000211565b838111156200023e576000848401525b50505050565b60006200025b6200025584620001d8565b620001b9565b9050828152602081018484840111156200027a57620002796200013e565b5b620002878482856200020e565b509392505050565b600082601f830112620002a757620002a662000139565b5b8151620002b984826020860162000244565b91505092915050565b60008060408385031215620002dc57620002db6200012f565b5b600083015167ffffffffffffffff811115620002fd57620002fc62000134565b5b6200030b858286016200028f565b925050602083015167ffffffffffffffff8111156200032f576200032e62000134565b5b6200033d858286016200028f565b9150509250929050565b7f4e487b7100000000000000000000000000000000000000000000000000000000600052602260045260246000fd5b600060028204905060018216806200038f57607f821691505b602082108103620003a557620003a462000347565b5b50919050565b61336c80620003bb6000396000f3fe608060405234801561001057600080fd5b50600436106101375760003560e01c80636352211e116100b8578063c87b56dd1161007c578063c87b56dd14610372578063d0def521146103a2578063e7572230146103d2578063e985e9c514610402578063f7d9757714610432578063fc7828e21461044e57610137565b80636352211e146102bc57806370a08231146102ec57806395d89b411461031c578063a22cb4651461033a578063b88d4fde1461035657610137565b806323b872dd116100ff57806323b872dd146101f45780632f745c591461021057806342842e0e14610240578063430c20811461025c5780634f6ccce71461028c57610137565b806301ffc9a71461013c57806306fdde031461016c578063081812fc1461018a578063095ea7b3146101ba57806318160ddd146101d6575b600080fd5b6101566004803603810190610151919061200f565b61047e565b6040516101639190612057565b60405180910390f35b6101746104f8565b604051610181919061210b565b60405180910390f35b6101a4600480360381019061019f9190612163565b61058a565b6040516101b191906121d1565b60405180910390f35b6101d460048036038101906101cf9190612218565b61060f565b005b6101de61061d565b6040516101eb9190612267565b60405180910390f35b61020e60048036038101906102099190612282565b61062a565b005b61022a60048036038101906102259190612218565b61068a565b6040516102379190612267565b60405180910390f35b61025a60048036038101906102559190612282565b61072f565b005b61027660048036038101906102719190612218565b61074f565b6040516102839190612057565b60405180910390f35b6102a660048036038101906102a19190612163565b610763565b6040516102b39190612267565b60405180910390f35b6102d660048036038101906102d19190612163565b6107d4565b6040516102e391906121d1565b60405180910390f35b610306600480360381019061030191906122d5565b610885565b6040516103139190612267565b60405180910390f35b61032461093c565b604051610331919061210b565b60405180910390f35b610354600480360381019061034f919061232e565b6109ce565b005b610370600480360381019061036b91906124a3565b6109e4565b005b61038c60048036038101906103879190612163565b610a46565b604051610399919061210b565b60405180910390f35b6103bc60048036038101906103b791906125c7565b610b97565b6040516103c99190612267565b60405180910390f35b6103ec60048036038101906103e79190612163565b610c08565b6040516103f99190612267565b60405180910390f35b61041c60048036038101906104179190612623565b610c25565b6040516104299190612057565b60405180910390f35b61044c60048036038101906104479190612663565b610cb9565b005b61046860048036038101906104639190612163565b610d0e565b60405161047591906121d1565b60405180910390f35b60007f780e9d63000000000000000000000000000000000000000000000000000000007bffffffffffffffffffffffffffffffffffffffffffffffffffffffff1916827bffffffffffffffffffffffffffffffffffffffffffffffffffffffff191614806104f157506104f082610d20565b5b9050919050565b606060008054610507906126d2565b80601f0160208091040260200160405190810160405280929190818152602001828054610533906126d2565b80156105805780601f1061055557610100808354040283529160200191610580565b820191906000526020600020905b81548152906001019060200180831161056357829003601f168201915b5050505050905090565b600061059582610e02565b6105d4576040517f08c379a00000000000000000000000000000000000000000000000000000000081526004016105cb90612775565b60405180910390fd5b6004600083815260200190815260200160002060009054906101000a900473ffffffffffffffffffffffffffffffffffffffff169050919050565b6106198282610e6e565b5050565b6000600880549050905090565b61063b610635610f27565b82610f2f565b61067a576040517f08c379a000000000000000000000000000000000000000000000000000000000815260040161067190612807565b60405180910390fd5b61068583838361100d565b505050565b600061069583610885565b82106106d6576040517f08c379a00000000000000000000000000000000000000000000000000000000081526004016106cd90612899565b60405180910390fd5b600660008473ffffffffffffffffffffffffffffffffffffffff1673ffffffffffffffffffffffffffffffffffffffff168152602001908152602001600020600083815260200190815260200160002054905092915050565b61074a838383604051806020016040528060008152506109e4565b505050565b600061075b8383610f2f565b905092915050565b600061076d61061d565b82106107ae576040517f08c379a00000000000000000000000000000000000000000000000000000000081526004016107a59061292b565b60405180910390fd5b600882815481106107c2576107c161294b565b5b90600052602060002001549050919050565b6000806002600084815260200190815260200160002060009054906101000a900473ffffffffffffffffffffffffffffffffffffffff169050600073ffffffffffffffffffffffffffffffffffffffff168173ffffffffffffffffffffffffffffffffffffffff160361087c576040517f08c379a0000000000000000000000000000000000000000000000000000000008152600401610873906129ec565b60405180910390fd5b80915050919050565b60008073ffffffffffffffffffffffffffffffffffffffff168273ffffffffffffffffffffffffffffffffffffffff16036108f5576040517f08c379a00000000000000000000000000000000000000000000000000000000081526004016108ec90612a7e565b60405180910390fd5b600360008373ffffffffffffffffffffffffffffffffffffffff1673ffffffffffffffffffffffffffffffffffffffff168152602001908152602001600020549050919050565b60606001805461094b906126d2565b80601f0160208091040260200160405190810160405280929190818152602001828054610977906126d2565b80156109c45780601f10610999576101008083540402835291602001916109c4565b820191906000526020600020905b8154815290600101906020018083116109a757829003601f168201915b5050505050905090565b6109e06109d9610f27565b8383611273565b5050565b6109f56109ef610f27565b83610f2f565b610a34576040517f08c379a0000000000000000000000000000000000000000000000000000000008152600401610a2b90612807565b60405180910390fd5b610a40848484846113df565b50505050565b6060610a5182610e02565b610a90576040517f08c379a0000000000000000000000000000000000000000000000000000000008152600401610a8790612b10565b60405180910390fd5b6000600b60008481526020019081526020016000208054610ab0906126d2565b80601f0160208091040260200160405190810160405280929190818152602001828054610adc906126d2565b8015610b295780601f10610afe57610100808354040283529160200191610b29565b820191906000526020600020905b815481529060010190602001808311610b0c57829003601f168201915b505050505090506000610b3a61143b565b90506000815103610b4f578192505050610b92565b600082511115610b84578082604051602001610b6c929190612b6c565b60405160208183030381529060405292505050610b92565b610b8d84611452565b925050505b919050565b6000610ba3600a6114f9565b6000610baf600a61150f565b9050610bbb848261151d565b610bc581846116f6565b7f30385c845b448a36257a6a1716e6ad2e1bc2cbe333cde1e69fe849ad6511adfe8482604051610bf6929190612b90565b60405180910390a18091505092915050565b6000600c6000838152602001908152602001600020549050919050565b6000600560008473ffffffffffffffffffffffffffffffffffffffff1673ffffffffffffffffffffffffffffffffffffffff16815260200190815260200160002060008373ffffffffffffffffffffffffffffffffffffffff1673ffffffffffffffffffffffffffffffffffffffff16815260200190815260200160002060009054906101000a900460ff16905092915050565b80600c6000848152602001908152602001600020819055507fa821f7ccc2978f9e95b9577c883b4b4d79925f0587cea3c1a0aa4741fa93db788282604051610d02929190612bb9565b60405180910390a15050565b6000610d198261058a565b9050919050565b60007f80ac58cd000000000000000000000000000000000000000000000000000000007bffffffffffffffffffffffffffffffffffffffffffffffffffffffff1916827bffffffffffffffffffffffffffffffffffffffffffffffffffffffff19161480610deb57507f5b5e139f000000000000000000000000000000000000000000000000000000007bffffffffffffffffffffffffffffffffffffffffffffffffffffffff1916827bffffffffffffffffffffffffffffffffffffffffffffffffffffffff1916145b80610dfb5750610dfa8261176a565b5b9050919050565b60008073ffffffffffffffffffffffffffffffffffffffff166002600084815260200190815260200160002060009054906101000a900473ffffffffffffffffffffffffffffffffffffffff1673ffffffffffffffffffffffffffffffffffffffff1614159050919050565b816004600083815260200190815260200160002060006101000a81548173ffffffffffffffffffffffffffffffffffffffff021916908373ffffffffffffffffffffffffffffffffffffffff160217905550808273ffffffffffffffffffffffffffffffffffffffff16610ee1836107d4565b73ffffffffffffffffffffffffffffffffffffffff167f8c5be1e5ebec7d5bd14f71427d1e84f3dd0314c0f7b2291e5b200ac8c7c3b92560405160405180910390a45050565b600033905090565b6000610f3a82610e02565b610f79576040517f08c379a0000000000000000000000000000000000000000000000000000000008152600401610f7090612c54565b60405180910390fd5b6000610f84836107d4565b90508073ffffffffffffffffffffffffffffffffffffffff168473ffffffffffffffffffffffffffffffffffffffff161480610ff357508373ffffffffffffffffffffffffffffffffffffffff16610fdb8461058a565b73ffffffffffffffffffffffffffffffffffffffff16145b8061100457506110038185610c25565b5b91505092915050565b8273ffffffffffffffffffffffffffffffffffffffff1661102d826107d4565b73ffffffffffffffffffffffffffffffffffffffff1614611083576040517f08c379a000000000000000000000000000000000000000000000000000000000815260040161107a90612ce6565b60405180910390fd5b600073ffffffffffffffffffffffffffffffffffffffff168273ffffffffffffffffffffffffffffffffffffffff16036110f2576040517f08c379a00000000000000000000000000000000000000000000000000000000081526004016110e990612d78565b60405180910390fd5b6110fd8383836117d4565b611108600082610e6e565b6001600360008573ffffffffffffffffffffffffffffffffffffffff1673ffffffffffffffffffffffffffffffffffffffff16815260200190815260200160002060008282546111589190612dc7565b925050819055506001600360008473ffffffffffffffffffffffffffffffffffffffff1673ffffffffffffffffffffffffffffffffffffffff16815260200190815260200160002060008282546111af9190612dfb565b92505081905550816002600083815260200190815260200160002060006101000a81548173ffffffffffffffffffffffffffffffffffffffff021916908373ffffffffffffffffffffffffffffffffffffffff160217905550808273ffffffffffffffffffffffffffffffffffffffff168473ffffffffffffffffffffffffffffffffffffffff167fddf252ad1be2c89b69c2b068fc378daa952ba7f163c4a11628f55a4df523b3ef60405160405180910390a461126e8383836118e6565b505050565b8173ffffffffffffffffffffffffffffffffffffffff168373ffffffffffffffffffffffffffffffffffffffff16036112e1576040517f08c379a00000000000000000000000000000000000000000000000000000000081526004016112d890612e9d565b60405180910390fd5b80600560008573ffffffffffffffffffffffffffffffffffffffff1673ffffffffffffffffffffffffffffffffffffffff16815260200190815260200160002060008473ffffffffffffffffffffffffffffffffffffffff1673ffffffffffffffffffffffffffffffffffffffff16815260200190815260200160002060006101000a81548160ff0219169083151502179055508173ffffffffffffffffffffffffffffffffffffffff168373ffffffffffffffffffffffffffffffffffffffff167f17307eab39ab6107e8899845ad3d59bd9653f200f220920489ca2b5937696c31836040516113d29190612057565b60405180910390a3505050565b6113ea84848461100d565b6113f6848484846118eb565b611435576040517f08c379a000000000000000000000000000000000000000000000000000000000815260040161142c90612f2f565b60405180910390fd5b50505050565b606060405180602001604052806000815250905090565b606061145d82610e02565b61149c576040517f08c379a000000000000000000000000000000000000000000000000000000000815260040161149390612fc1565b60405180910390fd5b60006114a661143b565b905060008151116114c657604051806020016040528060008152506114f1565b806114d084611a72565b6040516020016114e1929190612b6c565b6040516020818303038152906040525b915050919050565b6001816000016000828254019250508190555050565b600081600001549050919050565b600073ffffffffffffffffffffffffffffffffffffffff168273ffffffffffffffffffffffffffffffffffffffff160361158c576040517f08c379a00000000000000000000000000000000000000000000000000000000081526004016115839061302d565b60405180910390fd5b61159581610e02565b156115d5576040517f08c379a00000000000000000000000000000000000000000000000000000000081526004016115cc90613099565b60405180910390fd5b6115e1600083836117d4565b6001600360008473ffffffffffffffffffffffffffffffffffffffff1673ffffffffffffffffffffffffffffffffffffffff16815260200190815260200160002060008282546116319190612dfb565b92505081905550816002600083815260200190815260200160002060006101000a81548173ffffffffffffffffffffffffffffffffffffffff021916908373ffffffffffffffffffffffffffffffffffffffff160217905550808273ffffffffffffffffffffffffffffffffffffffff16600073ffffffffffffffffffffffffffffffffffffffff167fddf252ad1be2c89b69c2b068fc378daa952ba7f163c4a11628f55a4df523b3ef60405160405180910390a46116f2600083836118e6565b5050565b6116ff82610e02565b61173e576040517f08c379a00000000000000000000000000000000000000000000000000000000081526004016117359061312b565b60405180910390fd5b80600b60008481526020019081526020016000209080519060200190611765929190611f00565b505050565b60007f01ffc9a7000000000000000000000000000000000000000000000000000000007bffffffffffffffffffffffffffffffffffffffffffffffffffffffff1916827bffffffffffffffffffffffffffffffffffffffffffffffffffffffff1916149050919050565b6117df838383611bd2565b600073ffffffffffffffffffffffffffffffffffffffff168373ffffffffffffffffffffffffffffffffffffffff16036118215761181c81611bd7565b611860565b8173ffffffffffffffffffffffffffffffffffffffff168373ffffffffffffffffffffffffffffffffffffffff161461185f5761185e8382611c20565b5b5b600073ffffffffffffffffffffffffffffffffffffffff168273ffffffffffffffffffffffffffffffffffffffff16036118a25761189d81611d8d565b6118e1565b8273ffffffffffffffffffffffffffffffffffffffff168273ffffffffffffffffffffffffffffffffffffffff16146118e0576118df8282611e5e565b5b5b505050565b505050565b600061190c8473ffffffffffffffffffffffffffffffffffffffff16611edd565b15611a65578373ffffffffffffffffffffffffffffffffffffffff1663150b7a02611935610f27565b8786866040518563ffffffff1660e01b815260040161195794939291906131a0565b6020604051808303816000875af192505050801561199357506040513d601f19601f820116820180604052508101906119909190613201565b60015b611a15573d80600081146119c3576040519150601f19603f3d011682016040523d82523d6000602084013e6119c8565b606091505b506000815103611a0d576040517f08c379a0000000000000000000000000000000000000000000000000000000008152600401611a0490612f2f565b60405180910390fd5b805181602001fd5b63150b7a0260e01b7bffffffffffffffffffffffffffffffffffffffffffffffffffffffff1916817bffffffffffffffffffffffffffffffffffffffffffffffffffffffff191614915050611a6a565b600190505b949350505050565b606060008203611ab9576040518060400160405280600181526020017f30000000000000000000000000000000000000000000000000000000000000008152509050611bcd565b600082905060005b60008214611aeb578080611ad49061322e565b915050600a82611ae491906132a5565b9150611ac1565b60008167ffffffffffffffff811115611b0757611b06612378565b5b6040519080825280601f01601f191660200182016040528015611b395781602001600182028036833780820191505090505b5090505b60008514611bc657600182611b529190612dc7565b9150600a85611b6191906132d6565b6030611b6d9190612dfb565b60f81b818381518110611b8357611b8261294b565b5b60200101907effffffffffffffffffffffffffffffffffffffffffffffffffffffffffffff1916908160001a905350600a85611bbf91906132a5565b9450611b3d565b8093505050505b919050565b505050565b6008805490506009600083815260200190815260200160002081905550600881908060018154018082558091505060019003906000526020600020016000909190919091505550565b60006001611c2d84610885565b611c379190612dc7565b9050600060076000848152602001908152602001600020549050818114611d1c576000600660008673ffffffffffffffffffffffffffffffffffffffff1673ffffffffffffffffffffffffffffffffffffffff168152602001908152602001600020600084815260200190815260200160002054905080600660008773ffffffffffffffffffffffffffffffffffffffff1673ffffffffffffffffffffffffffffffffffffffff168152602001908152602001600020600084815260200190815260200160002081905550816007600083815260200190815260200160002081905550505b6007600084815260200190815260200160002060009055600660008573ffffffffffffffffffffffffffffffffffffffff1673ffffffffffffffffffffffffffffffffffffffff16815260200190815260200160002060008381526020019081526020016000206000905550505050565b60006001600880549050611da19190612dc7565b9050600060096000848152602001908152602001600020549050600060088381548110611dd157611dd061294b565b5b906000526020600020015490508060088381548110611df357611df261294b565b5b906000526020600020018190555081600960008381526020019081526020016000208190555060096000858152602001908152602001600020600090556008805480611e4257611e41613307565b5b6001900381819060005260206000200160009055905550505050565b6000611e6983610885565b905081600660008573ffffffffffffffffffffffffffffffffffffffff1673ffffffffffffffffffffffffffffffffffffffff168152602001908152602001600020600083815260200190815260200160002081905550806007600084815260200190815260200160002081905550505050565b6000808273ffffffffffffffffffffffffffffffffffffffff163b119050919050565b828054611f0c906126d2565b90600052602060002090601f016020900481019282611f2e5760008555611f75565b82601f10611f4757805160ff1916838001178555611f75565b82800160010185558215611f75579182015b82811115611f74578251825591602001919060010190611f59565b5b509050611f829190611f86565b5090565b5b80821115611f9f576000816000905550600101611f87565b5090565b6000604051905090565b600080fd5b600080fd5b60007fffffffff0000000000000000000000000000000000000000000000000000000082169050919050565b611fec81611fb7565b8114611ff757600080fd5b50565b60008135905061200981611fe3565b92915050565b60006020828403121561202557612024611fad565b5b600061203384828501611ffa565b91505092915050565b60008115159050919050565b6120518161203c565b82525050565b600060208201905061206c6000830184612048565b92915050565b600081519050919050565b600082825260208201905092915050565b60005b838110156120ac578082015181840152602081019050612091565b838111156120bb576000848401525b50505050565b6000601f19601f8301169050919050565b60006120dd82612072565b6120e7818561207d565b93506120f781856020860161208e565b612100816120c1565b840191505092915050565b6000602082019050818103600083015261212581846120d2565b905092915050565b6000819050919050565b6121408161212d565b811461214b57600080fd5b50565b60008135905061215d81612137565b92915050565b60006020828403121561217957612178611fad565b5b60006121878482850161214e565b91505092915050565b600073ffffffffffffffffffffffffffffffffffffffff82169050919050565b60006121bb82612190565b9050919050565b6121cb816121b0565b82525050565b60006020820190506121e660008301846121c2565b92915050565b6121f5816121b0565b811461220057600080fd5b50565b600081359050612212816121ec565b92915050565b6000806040838503121561222f5761222e611fad565b5b600061223d85828601612203565b925050602061224e8582860161214e565b9150509250929050565b6122618161212d565b82525050565b600060208201905061227c6000830184612258565b92915050565b60008060006060848603121561229b5761229a611fad565b5b60006122a986828701612203565b93505060206122ba86828701612203565b92505060406122cb8682870161214e565b9150509250925092565b6000602082840312156122eb576122ea611fad565b5b60006122f984828501612203565b91505092915050565b61230b8161203c565b811461231657600080fd5b50565b60008135905061232881612302565b92915050565b6000806040838503121561234557612344611fad565b5b600061235385828601612203565b925050602061236485828601612319565b9150509250929050565b600080fd5b600080fd5b7f4e487b7100000000000000000000000000000000000000000000000000000000600052604160045260246000fd5b6123b0826120c1565b810181811067ffffffffffffffff821117156123cf576123ce612378565b5b80604052505050565b60006123e2611fa3565b90506123ee82826123a7565b919050565b600067ffffffffffffffff82111561240e5761240d612378565b5b612417826120c1565b9050602081019050919050565b82818337600083830152505050565b6000612446612441846123f3565b6123d8565b90508281526020810184848401111561246257612461612373565b5b61246d848285612424565b509392505050565b600082601f83011261248a5761248961236e565b5b813561249a848260208601612433565b91505092915050565b600080600080608085870312156124bd576124bc611fad565b5b60006124cb87828801612203565b94505060206124dc87828801612203565b93505060406124ed8782880161214e565b925050606085013567ffffffffffffffff81111561250e5761250d611fb2565b5b61251a87828801612475565b91505092959194509250565b600067ffffffffffffffff82111561254157612540612378565b5b61254a826120c1565b9050602081019050919050565b600061256a61256584612526565b6123d8565b90508281526020810184848401111561258657612585612373565b5b612591848285612424565b509392505050565b600082601f8301126125ae576125ad61236e565b5b81356125be848260208601612557565b91505092915050565b600080604083850312156125de576125dd611fad565b5b60006125ec85828601612203565b925050602083013567ffffffffffffffff81111561260d5761260c611fb2565b5b61261985828601612599565b9150509250929050565b6000806040838503121561263a57612639611fad565b5b600061264885828601612203565b925050602061265985828601612203565b9150509250929050565b6000806040838503121561267a57612679611fad565b5b60006126888582860161214e565b92505060206126998582860161214e565b9150509250929050565b7f4e487b7100000000000000000000000000000000000000000000000000000000600052602260045260246000fd5b600060028204905060018216806126ea57607f821691505b6020821081036126fd576126fc6126a3565b5b50919050565b7f4552433732313a20617070726f76656420717565727920666f72206e6f6e657860008201527f697374656e7420746f6b656e0000000000000000000000000000000000000000602082015250565b600061275f602c8361207d565b915061276a82612703565b604082019050919050565b6000602082019050818103600083015261278e81612752565b9050919050565b7f4552433732313a207472616e736665722063616c6c6572206973206e6f74206f60008201527f776e6572206e6f7220617070726f766564000000000000000000000000000000602082015250565b60006127f160318361207d565b91506127fc82612795565b604082019050919050565b60006020820190508181036000830152612820816127e4565b9050919050565b7f455243373231456e756d657261626c653a206f776e657220696e646578206f7560008201527f74206f6620626f756e6473000000000000000000000000000000000000000000602082015250565b6000612883602b8361207d565b915061288e82612827565b604082019050919050565b600060208201905081810360008301526128b281612876565b9050919050565b7f455243373231456e756d657261626c653a20676c6f62616c20696e646578206f60008201527f7574206f6620626f756e64730000000000000000000000000000000000000000602082015250565b6000612915602c8361207d565b9150612920826128b9565b604082019050919050565b6000602082019050818103600083015261294481612908565b9050919050565b7f4e487b7100000000000000000000000000000000000000000000000000000000600052603260045260246000fd5b7f4552433732313a206f776e657220717565727920666f72206e6f6e657869737460008201527f656e7420746f6b656e0000000000000000000000000000000000000000000000602082015250565b60006129d660298361207d565b91506129e18261297a565b604082019050919050565b60006020820190508181036000830152612a05816129c9565b9050919050565b7f4552433732313a2062616c616e636520717565727920666f7220746865207a6560008201527f726f206164647265737300000000000000000000000000000000000000000000602082015250565b6000612a68602a8361207d565b9150612a7382612a0c565b604082019050919050565b60006020820190508181036000830152612a9781612a5b565b9050919050565b7f45524337323155524953746f726167653a2055524920717565727920666f722060008201527f6e6f6e6578697374656e7420746f6b656e000000000000000000000000000000602082015250565b6000612afa60318361207d565b9150612b0582612a9e565b604082019050919050565b60006020820190508181036000830152612b2981612aed565b9050919050565b600081905092915050565b6000612b4682612072565b612b508185612b30565b9350612b6081856020860161208e565b80840191505092915050565b6000612b788285612b3b565b9150612b848284612b3b565b91508190509392505050565b6000604082019050612ba560008301856121c2565b612bb26020830184612258565b9392505050565b6000604082019050612bce6000830185612258565b612bdb6020830184612258565b9392505050565b7f4552433732313a206f70657261746f7220717565727920666f72206e6f6e657860008201527f697374656e7420746f6b656e0000000000000000000000000000000000000000602082015250565b6000612c3e602c8361207d565b9150612c4982612be2565b604082019050919050565b60006020820190508181036000830152612c6d81612c31565b9050919050565b7f4552433732313a207472616e736665722066726f6d20696e636f72726563742060008201527f6f776e6572000000000000000000000000000000000000000000000000000000602082015250565b6000612cd060258361207d565b9150612cdb82612c74565b604082019050919050565b60006020820190508181036000830152612cff81612cc3565b9050919050565b7f4552433732313a207472616e7366657220746f20746865207a65726f2061646460008201527f7265737300000000000000000000000000000000000000000000000000000000602082015250565b6000612d6260248361207d565b9150612d6d82612d06565b604082019050919050565b60006020820190508181036000830152612d9181612d55565b9050919050565b7f4e487b7100000000000000000000000000000000000000000000000000000000600052601160045260246000fd5b6000612dd28261212d565b9150612ddd8361212d565b925082821015612df057612def612d98565b5b828203905092915050565b6000612e068261212d565b9150612e118361212d565b9250827fffffffffffffffffffffffffffffffffffffffffffffffffffffffffffffffff03821115612e4657612e45612d98565b5b828201905092915050565b7f4552433732313a20617070726f766520746f2063616c6c657200000000000000600082015250565b6000612e8760198361207d565b9150612e9282612e51565b602082019050919050565b60006020820190508181036000830152612eb681612e7a565b9050919050565b7f4552433732313a207472616e7366657220746f206e6f6e20455243373231526560008201527f63656976657220696d706c656d656e7465720000000000000000000000000000602082015250565b6000612f1960328361207d565b9150612f2482612ebd565b604082019050919050565b60006020820190508181036000830152612f4881612f0c565b9050919050565b7f4552433732314d657461646174613a2055524920717565727920666f72206e6f60008201527f6e6578697374656e7420746f6b656e0000000000000000000000000000000000602082015250565b6000612fab602f8361207d565b9150612fb682612f4f565b604082019050919050565b60006020820190508181036000830152612fda81612f9e565b9050919050565b7f4552433732313a206d696e7420746f20746865207a65726f2061646472657373600082015250565b600061301760208361207d565b915061302282612fe1565b602082019050919050565b600060208201905081810360008301526130468161300a565b9050919050565b7f4552433732313a20746f6b656e20616c7265616479206d696e74656400000000600082015250565b6000613083601c8361207d565b915061308e8261304d565b602082019050919050565b600060208201905081810360008301526130b281613076565b9050919050565b7f45524337323155524953746f726167653a2055524920736574206f66206e6f6e60008201527f6578697374656e7420746f6b656e000000000000000000000000000000000000602082015250565b6000613115602e8361207d565b9150613120826130b9565b604082019050919050565b6000602082019050818103600083015261314481613108565b9050919050565b600081519050919050565b600082825260208201905092915050565b60006131728261314b565b61317c8185613156565b935061318c81856020860161208e565b613195816120c1565b840191505092915050565b60006080820190506131b560008301876121c2565b6131c260208301866121c2565b6131cf6040830185612258565b81810360608301526131e18184613167565b905095945050505050565b6000815190506131fb81611fe3565b92915050565b60006020828403121561321757613216611fad565b5b6000613225848285016131ec565b91505092915050565b60006132398261212d565b91507fffffffffffffffffffffffffffffffffffffffffffffffffffffffffffffffff820361326b5761326a612d98565b5b600182019050919050565b7f4e487b7100000000000000000000000000000000000000000000000000000000600052601260045260246000fd5b60006132b08261212d565b91506132bb8361212d565b9250826132cb576132ca613276565b5b828204905092915050565b60006132e18261212d565b91506132ec8361212d565b9250826132fc576132fb613276565b5b828206905092915050565b7f4e487b7100000000000000000000000000000000000000000000000000000000600052603160045260246000fdfea264697066735822122061a7d89a4c13faa44c999c7687d59371619350f8ab98a9e8b57515d68ae3ea4964736f6c634300080d0033",
  "immutableReferences": {},
  "source": "// SPDX-License-Identifier: GPL-3.0\npragma solidity 0.8.13;\n\nimport \"@openzeppelin/contracts/token/ERC721/extensions/ERC721Enumerable.sol\";\nimport \"@openzeppelin/contracts/utils/Counters.sol\";\n\ncontract ERC721Token is ERC721Enumerable {\n\n    event Minted(address owner, uint256 tokenId);\n    event PriceEdited(uint256 tokenId, uint256 price);\n\n    using Counters for Counters.Counter;\n    using Strings for uint256;\n    \n    Counters.Counter private _tokenIds;\n\n    // Optional mapping for token URIs\n    mapping(uint256 => string) private _tokenURIs;\n\n    mapping(uint256 => uint256) private prices;\n\n    constructor(string memory name_, string memory symbol_) ERC721(name_, symbol_) {}\n\n    function mint(address _owner, string memory _uri) public returns(uint256) {\n        _tokenIds.increment();        \n        uint256 newTokenId = _tokenIds.current();\n        _mint(_owner, newTokenId);\n        _setTokenURI(newTokenId, _uri);\n\n        emit Minted(_owner, newTokenId);\n\n        return newTokenId;\n    }\n\n    function tokenURI(uint256 tokenId) public view virtual override returns (string memory) {\n        require(_exists(tokenId), \"ERC721URIStorage: URI query for nonexistent token\");\n\n        string memory _tokenURI = _tokenURIs[tokenId];\n        string memory base = _baseURI();\n\n        // If there is no base URI, return the token URI.\n        if (bytes(base).length == 0) {\n            return _tokenURI;\n        }\n        // If both are set, concatenate the baseURI and tokenURI (via abi.encodePacked).\n        if (bytes(_tokenURI).length > 0) {\n            return string(abi.encodePacked(base, _tokenURI));\n        }\n\n        return super.tokenURI(tokenId);\n    }\n\n    function _setTokenURI(uint256 tokenId, string memory _tokenURI) internal virtual {\n        require(_exists(tokenId), \"ERC721URIStorage: URI set of nonexistent token\");\n        _tokenURIs[tokenId] = _tokenURI;\n    }\n\n    function approve(address _to, uint256 _tokenId) public override(ERC721, IERC721) virtual {\n        _approve(_to, _tokenId);\n    }\n\n    function getAddressApprovalsByTokenId(uint256 _tokenId) public view returns(address) {\n        return getApproved(_tokenId);\n    }\n\n    function isApprovedOrOwner(address spender, uint256 tokenId) public view returns (bool) {\n        return _isApprovedOrOwner(spender, tokenId);\n    }\n\n    function setPrice(uint256 _tokenId, uint256 _price) external {\n        prices[_tokenId] = _price;\n\n        emit PriceEdited(_tokenId, _price);\n    }\n\n    function getPrice(uint256 _tokenId) public view returns(uint256) {\n        return prices[_tokenId];\n    }\n}\n",
  "sourcePath": "/Users/rchea/workspaces/alyra/marketplace/contracts/ERC721Token.sol",
  "compiler": {
    "name": "solc",
    "version": "0.8.13+commit.abaa5c0e.Emscripten.clang"
  },
  "schemaVersion": "3.4.7",
  "updatedAt": "2022-05-22T23:17:44.666Z",
  "devdoc": {
    "kind": "dev",
    "methods": {
      "balanceOf(address)": {
        "details": "See {IERC721-balanceOf}."
      },
      "getApproved(uint256)": {
        "details": "See {IERC721-getApproved}."
      },
      "isApprovedForAll(address,address)": {
        "details": "See {IERC721-isApprovedForAll}."
      },
      "name()": {
        "details": "See {IERC721Metadata-name}."
      },
      "ownerOf(uint256)": {
        "details": "See {IERC721-ownerOf}."
      },
      "safeTransferFrom(address,address,uint256)": {
        "details": "See {IERC721-safeTransferFrom}."
      },
      "safeTransferFrom(address,address,uint256,bytes)": {
        "details": "See {IERC721-safeTransferFrom}."
      },
      "setApprovalForAll(address,bool)": {
        "details": "See {IERC721-setApprovalForAll}."
      },
      "supportsInterface(bytes4)": {
        "details": "See {IERC165-supportsInterface}."
      },
      "symbol()": {
        "details": "See {IERC721Metadata-symbol}."
      },
      "tokenByIndex(uint256)": {
        "details": "See {IERC721Enumerable-tokenByIndex}."
      },
      "tokenOfOwnerByIndex(address,uint256)": {
        "details": "See {IERC721Enumerable-tokenOfOwnerByIndex}."
      },
      "tokenURI(uint256)": {
        "details": "See {IERC721Metadata-tokenURI}."
      },
      "totalSupply()": {
        "details": "See {IERC721Enumerable-totalSupply}."
      },
      "transferFrom(address,address,uint256)": {
        "details": "See {IERC721-transferFrom}."
      }
    },
    "version": 1
  },
  "userdoc": {
    "kind": "user",
    "methods": {},
    "version": 1
  }
}