{
  "contractName": "Factory",
  "abi": [
    {
      "anonymous": false,
      "inputs": [
        {
          "indexed": false,
          "internalType": "address",
          "name": "contractAddress",
          "type": "address"
        },
        {
          "indexed": false,
          "internalType": "address",
          "name": "owner",
          "type": "address"
        }
      ],
      "name": "CollectionCreated",
      "type": "event"
    },
    {
      "anonymous": false,
      "inputs": [
        {
          "indexed": false,
          "internalType": "address",
          "name": "contractAddress",
          "type": "address"
        },
        {
          "indexed": false,
          "internalType": "address",
          "name": "owner",
          "type": "address"
        },
        {
          "indexed": false,
          "internalType": "uint256",
          "name": "tokenId",
          "type": "uint256"
        }
      ],
      "name": "FactoryMinted",
      "type": "event"
    },
    {
      "inputs": [
        {
          "internalType": "string",
          "name": "_name",
          "type": "string"
        },
        {
          "internalType": "string",
          "name": "_symbol",
          "type": "string"
        }
      ],
      "name": "deploy",
      "outputs": [],
      "stateMutability": "payable",
      "type": "function",
      "payable": true
    },
    {
      "inputs": [
        {
          "internalType": "address",
          "name": "_tokenAddress",
          "type": "address"
        },
        {
          "internalType": "address",
          "name": "_owner",
          "type": "address"
        },
        {
          "internalType": "string",
          "name": "_uri",
          "type": "string"
        }
      ],
      "name": "mint",
      "outputs": [
        {
          "internalType": "uint256",
          "name": "",
          "type": "uint256"
        }
      ],
      "stateMutability": "nonpayable",
      "type": "function"
    },
    {
      "inputs": [
        {
          "internalType": "address",
          "name": "_tokenAddress",
          "type": "address"
        },
        {
          "internalType": "uint256",
          "name": "_tokenId",
          "type": "uint256"
        }
      ],
      "name": "getTokenURI",
      "outputs": [
        {
          "internalType": "string",
          "name": "",
          "type": "string"
        }
      ],
      "stateMutability": "view",
      "type": "function",
      "constant": true
    },
    {
      "inputs": [],
      "name": "getCollections",
      "outputs": [
        {
          "internalType": "address[]",
          "name": "",
          "type": "address[]"
        }
      ],
      "stateMutability": "view",
      "type": "function",
      "constant": true
    },
    {
      "inputs": [
        {
          "internalType": "address",
          "name": "_tokenAddress",
          "type": "address"
        },
        {
          "internalType": "address",
          "name": "_owner",
          "type": "address"
        }
      ],
      "name": "getOwnerBalanceByCollection",
      "outputs": [
        {
          "internalType": "uint256",
          "name": "",
          "type": "uint256"
        }
      ],
      "stateMutability": "view",
      "type": "function",
      "constant": true
    },
    {
      "inputs": [
        {
          "internalType": "address",
          "name": "_tokenAddress",
          "type": "address"
        }
      ],
      "name": "getTotalSupply",
      "outputs": [
        {
          "internalType": "uint256",
          "name": "",
          "type": "uint256"
        }
      ],
      "stateMutability": "view",
      "type": "function",
      "constant": true
    },
    {
      "inputs": [
        {
          "internalType": "address",
          "name": "_tokenAddress",
          "type": "address"
        },
        {
          "internalType": "address",
          "name": "_owner",
          "type": "address"
        }
      ],
      "name": "getOwnerTokenIdsByCollection",
      "outputs": [
        {
          "internalType": "uint256[]",
          "name": "",
          "type": "uint256[]"
        }
      ],
      "stateMutability": "view",
      "type": "function",
      "constant": true
    },
    {
      "inputs": [
        {
          "internalType": "address",
          "name": "_tokenAddress",
          "type": "address"
        }
      ],
      "name": "getCollectionName",
      "outputs": [
        {
          "internalType": "string",
          "name": "",
          "type": "string"
        }
      ],
      "stateMutability": "view",
      "type": "function",
      "constant": true
    },
    {
      "inputs": [
        {
          "internalType": "address",
          "name": "_contractCollection",
          "type": "address"
        },
        {
          "internalType": "uint256",
          "name": "_tokenId",
          "type": "uint256"
        },
        {
          "internalType": "uint256",
          "name": "_price",
          "type": "uint256"
        }
      ],
      "name": "setPrice",
      "outputs": [],
      "stateMutability": "nonpayable",
      "type": "function"
    },
    {
      "inputs": [
        {
          "internalType": "address",
          "name": "_contractCollection",
          "type": "address"
        },
        {
          "internalType": "uint256",
          "name": "_tokenId",
          "type": "uint256"
        }
      ],
      "name": "getPrice",
      "outputs": [
        {
          "internalType": "uint256",
          "name": "",
          "type": "uint256"
        }
      ],
      "stateMutability": "view",
      "type": "function",
      "constant": true
    }
  ],
  "bytecode": "0x608060405234801561001057600080fd5b50614b10806100206000396000f3fe6080604052600436106200009e5760003560e01c80634fd8db5d11620000615780634fd8db5d14620001cd578063622f1b9c146200021157806368da10ae146200025557806380f03b681462000299578063b548848714620002dd576200009e565b80630b63fd6214620000a3578063221375a614620000e75780633011e16a146200012b578063449e815d146200015957806346e63586146200019d575b600080fd5b348015620000b057600080fd5b50620000cf6004803603810190620000c9919062000ac5565b620002fd565b604051620000de919062000bb0565b60405180910390f35b348015620000f457600080fd5b506200011360048036038101906200010d919062000d25565b6200038b565b60405162000122919062000db1565b60405180910390f35b3480156200013857600080fd5b5062000157600480360381019062000151919062000dce565b620004fe565b005b3480156200016657600080fd5b506200018560048036038101906200017f919062000ac5565b62000574565b60405162000194919062000db1565b60405180910390f35b348015620001aa57600080fd5b50620001b5620005fd565b604051620001c4919062000ef8565b60405180910390f35b348015620001da57600080fd5b50620001f96004803603810190620001f3919062000f1c565b6200068d565b60405162000208919062000db1565b60405180910390f35b3480156200021e57600080fd5b506200023d600480360381019062000237919062000f1c565b62000716565b6040516200024c919062001031565b60405180910390f35b3480156200026257600080fd5b506200028160048036038101906200027b919062001055565b620007ed565b60405162000290919062000db1565b60405180910390f35b348015620002a657600080fd5b50620002c56004803603810190620002bf919062001055565b62000868565b604051620002d4919062000bb0565b60405180910390f35b620002fb6004803603810190620002f5919062001087565b620008e8565b005b60608273ffffffffffffffffffffffffffffffffffffffff1663c87b56dd836040518263ffffffff1660e01b81526004016200033a919062000db1565b600060405180830381865afa15801562000358573d6000803e3d6000fd5b505050506040513d6000823e3d601f19601f820116820180604052508101906200038391906200118a565b905092915050565b6000808473ffffffffffffffffffffffffffffffffffffffff1663d0def52185856040518363ffffffff1660e01b8152600401620003cb929190620011ec565b6020604051808303816000875af1158015620003eb573d6000803e3d6000fd5b505050506040513d601f19601f8201168201806040525081019062000411919062001237565b9050600160008573ffffffffffffffffffffffffffffffffffffffff1673ffffffffffffffffffffffffffffffffffffffff16815260200190815260200160002060008673ffffffffffffffffffffffffffffffffffffffff1673ffffffffffffffffffffffffffffffffffffffff1681526020019081526020016000208190806001815401808255809150506001900390600052602060002001600090919091909150557f2ddf1c5d25459a57f2a541b8411e90807039cb0f0ca4392a487c862603700f94858583604051620004eb9392919062001269565b60405180910390a1809150509392505050565b8273ffffffffffffffffffffffffffffffffffffffff1663f7d9757783836040518363ffffffff1660e01b81526004016200053b929190620012a6565b600060405180830381600087803b1580156200055657600080fd5b505af11580156200056b573d6000803e3d6000fd5b50505050505050565b60008273ffffffffffffffffffffffffffffffffffffffff1663e7572230836040518263ffffffff1660e01b8152600401620005b1919062000db1565b602060405180830381865afa158015620005cf573d6000803e3d6000fd5b505050506040513d601f19601f82011682018060405250810190620005f5919062001237565b905092915050565b606060008054806020026020016040519081016040528092919081815260200182805480156200068357602002820191906000526020600020905b8160009054906101000a900473ffffffffffffffffffffffffffffffffffffffff1673ffffffffffffffffffffffffffffffffffffffff168152602001906001019080831162000638575b5050505050905090565b60008273ffffffffffffffffffffffffffffffffffffffff166370a08231836040518263ffffffff1660e01b8152600401620006ca9190620012d3565b602060405180830381865afa158015620006e8573d6000803e3d6000fd5b505050506040513d601f19601f820116820180604052508101906200070e919062001237565b905092915050565b6060600160008373ffffffffffffffffffffffffffffffffffffffff1673ffffffffffffffffffffffffffffffffffffffff16815260200190815260200160002060008473ffffffffffffffffffffffffffffffffffffffff1673ffffffffffffffffffffffffffffffffffffffff168152602001908152602001600020805480602002602001604051908101604052809291908181526020018280548015620007e057602002820191906000526020600020905b815481526020019060010190808311620007cb575b5050505050905092915050565b60008173ffffffffffffffffffffffffffffffffffffffff166318160ddd6040518163ffffffff1660e01b8152600401602060405180830381865afa1580156200083b573d6000803e3d6000fd5b505050506040513d601f19601f8201168201806040525081019062000861919062001237565b9050919050565b60608173ffffffffffffffffffffffffffffffffffffffff166306fdde036040518163ffffffff1660e01b8152600401600060405180830381865afa158015620008b6573d6000803e3d6000fd5b505050506040513d6000823e3d601f19601f82011682018060405250810190620008e191906200118a565b9050919050565b600082604051602001620008fd919062001332565b6040516020818303038152906040528051906020012090506000818484604051620009289062000a03565b620009359291906200134b565b8190604051809103906000f590508015801562000956573d6000803e3d6000fd5b50905060008190506000819080600181540180825580915050600190039060005260206000200160009091909190916101000a81548173ffffffffffffffffffffffffffffffffffffffff021916908373ffffffffffffffffffffffffffffffffffffffff1602179055507f5d0de243db1669e3a7056744cd715c625f0c1c348736c2c2d53d0ddebff1a6c78233604051620009f492919062001386565b60405180910390a15050505050565b61372780620013b483390190565b6000604051905090565b600080fd5b600080fd5b600073ffffffffffffffffffffffffffffffffffffffff82169050919050565b600062000a528262000a25565b9050919050565b62000a648162000a45565b811462000a7057600080fd5b50565b60008135905062000a848162000a59565b92915050565b6000819050919050565b62000a9f8162000a8a565b811462000aab57600080fd5b50565b60008135905062000abf8162000a94565b92915050565b6000806040838503121562000adf5762000ade62000a1b565b5b600062000aef8582860162000a73565b925050602062000b028582860162000aae565b9150509250929050565b600081519050919050565b600082825260208201905092915050565b60005b8381101562000b4857808201518184015260208101905062000b2b565b8381111562000b58576000848401525b50505050565b6000601f19601f8301169050919050565b600062000b7c8262000b0c565b62000b88818562000b17565b935062000b9a81856020860162000b28565b62000ba58162000b5e565b840191505092915050565b6000602082019050818103600083015262000bcc818462000b6f565b905092915050565b600080fd5b600080fd5b7f4e487b7100000000000000000000000000000000000000000000000000000000600052604160045260246000fd5b62000c188262000b5e565b810181811067ffffffffffffffff8211171562000c3a5762000c3962000bde565b5b80604052505050565b600062000c4f62000a11565b905062000c5d828262000c0d565b919050565b600067ffffffffffffffff82111562000c805762000c7f62000bde565b5b62000c8b8262000b5e565b9050602081019050919050565b82818337600083830152505050565b600062000cbe62000cb88462000c62565b62000c43565b90508281526020810184848401111562000cdd5762000cdc62000bd9565b5b62000cea84828562000c98565b509392505050565b600082601f83011262000d0a5762000d0962000bd4565b5b813562000d1c84826020860162000ca7565b91505092915050565b60008060006060848603121562000d415762000d4062000a1b565b5b600062000d518682870162000a73565b935050602062000d648682870162000a73565b925050604084013567ffffffffffffffff81111562000d885762000d8762000a20565b5b62000d968682870162000cf2565b9150509250925092565b62000dab8162000a8a565b82525050565b600060208201905062000dc8600083018462000da0565b92915050565b60008060006060848603121562000dea5762000de962000a1b565b5b600062000dfa8682870162000a73565b935050602062000e0d8682870162000aae565b925050604062000e208682870162000aae565b9150509250925092565b600081519050919050565b600082825260208201905092915050565b6000819050602082019050919050565b62000e618162000a45565b82525050565b600062000e75838362000e56565b60208301905092915050565b6000602082019050919050565b600062000e9b8262000e2a565b62000ea7818562000e35565b935062000eb48362000e46565b8060005b8381101562000eeb57815162000ecf888262000e67565b975062000edc8362000e81565b92505060018101905062000eb8565b5085935050505092915050565b6000602082019050818103600083015262000f14818462000e8e565b905092915050565b6000806040838503121562000f365762000f3562000a1b565b5b600062000f468582860162000a73565b925050602062000f598582860162000a73565b9150509250929050565b600081519050919050565b600082825260208201905092915050565b6000819050602082019050919050565b62000f9a8162000a8a565b82525050565b600062000fae838362000f8f565b60208301905092915050565b6000602082019050919050565b600062000fd48262000f63565b62000fe0818562000f6e565b935062000fed8362000f7f565b8060005b838110156200102457815162001008888262000fa0565b9750620010158362000fba565b92505060018101905062000ff1565b5085935050505092915050565b600060208201905081810360008301526200104d818462000fc7565b905092915050565b6000602082840312156200106e576200106d62000a1b565b5b60006200107e8482850162000a73565b91505092915050565b60008060408385031215620010a157620010a062000a1b565b5b600083013567ffffffffffffffff811115620010c257620010c162000a20565b5b620010d08582860162000cf2565b925050602083013567ffffffffffffffff811115620010f457620010f362000a20565b5b620011028582860162000cf2565b9150509250929050565b6000620011236200111d8462000c62565b62000c43565b90508281526020810184848401111562001142576200114162000bd9565b5b6200114f84828562000b28565b509392505050565b600082601f8301126200116f576200116e62000bd4565b5b8151620011818482602086016200110c565b91505092915050565b600060208284031215620011a357620011a262000a1b565b5b600082015167ffffffffffffffff811115620011c457620011c362000a20565b5b620011d28482850162001157565b91505092915050565b620011e68162000a45565b82525050565b6000604082019050620012036000830185620011db565b818103602083015262001217818462000b6f565b90509392505050565b600081519050620012318162000a94565b92915050565b60006020828403121562001250576200124f62000a1b565b5b6000620012608482850162001220565b91505092915050565b6000606082019050620012806000830186620011db565b6200128f6020830185620011db565b6200129e604083018462000da0565b949350505050565b6000604082019050620012bd600083018562000da0565b620012cc602083018462000da0565b9392505050565b6000602082019050620012ea6000830184620011db565b92915050565b600081905092915050565b6000620013088262000b0c565b620013148185620012f0565b93506200132681856020860162000b28565b80840191505092915050565b6000620013408284620012fb565b915081905092915050565b6000604082019050818103600083015262001367818562000b6f565b905081810360208301526200137d818462000b6f565b90509392505050565b60006040820190506200139d6000830185620011db565b620013ac6020830184620011db565b939250505056fe60806040523480156200001157600080fd5b5060405162003727380380620037278339818101604052810190620000379190620002c2565b818181600090805190602001906200005192919062000075565b5080600190805190602001906200006a92919062000075565b5050505050620003ab565b828054620000839062000376565b90600052602060002090601f016020900481019282620000a75760008555620000f3565b82601f10620000c257805160ff1916838001178555620000f3565b82800160010185558215620000f3579182015b82811115620000f2578251825591602001919060010190620000d5565b5b50905062000102919062000106565b5090565b5b808211156200012157600081600090555060010162000107565b5090565b6000604051905090565b600080fd5b600080fd5b600080fd5b600080fd5b6000601f19601f8301169050919050565b7f4e487b7100000000000000000000000000000000000000000000000000000000600052604160045260246000fd5b6200018e8262000143565b810181811067ffffffffffffffff82111715620001b057620001af62000154565b5b80604052505050565b6000620001c562000125565b9050620001d3828262000183565b919050565b600067ffffffffffffffff821115620001f657620001f562000154565b5b620002018262000143565b9050602081019050919050565b60005b838110156200022e57808201518184015260208101905062000211565b838111156200023e576000848401525b50505050565b60006200025b6200025584620001d8565b620001b9565b9050828152602081018484840111156200027a57620002796200013e565b5b620002878482856200020e565b509392505050565b600082601f830112620002a757620002a662000139565b5b8151620002b984826020860162000244565b91505092915050565b60008060408385031215620002dc57620002db6200012f565b5b600083015167ffffffffffffffff811115620002fd57620002fc62000134565b5b6200030b858286016200028f565b925050602083015167ffffffffffffffff8111156200032f576200032e62000134565b5b6200033d858286016200028f565b9150509250929050565b7f4e487b7100000000000000000000000000000000000000000000000000000000600052602260045260246000fd5b600060028204905060018216806200038f57607f821691505b602082108103620003a557620003a462000347565b5b50919050565b61336c80620003bb6000396000f3fe608060405234801561001057600080fd5b50600436106101375760003560e01c80636352211e116100b8578063c87b56dd1161007c578063c87b56dd14610372578063d0def521146103a2578063e7572230146103d2578063e985e9c514610402578063f7d9757714610432578063fc7828e21461044e57610137565b80636352211e146102bc57806370a08231146102ec57806395d89b411461031c578063a22cb4651461033a578063b88d4fde1461035657610137565b806323b872dd116100ff57806323b872dd146101f45780632f745c591461021057806342842e0e14610240578063430c20811461025c5780634f6ccce71461028c57610137565b806301ffc9a71461013c57806306fdde031461016c578063081812fc1461018a578063095ea7b3146101ba57806318160ddd146101d6575b600080fd5b6101566004803603810190610151919061200f565b61047e565b6040516101639190612057565b60405180910390f35b6101746104f8565b604051610181919061210b565b60405180910390f35b6101a4600480360381019061019f9190612163565b61058a565b6040516101b191906121d1565b60405180910390f35b6101d460048036038101906101cf9190612218565b61060f565b005b6101de61061d565b6040516101eb9190612267565b60405180910390f35b61020e60048036038101906102099190612282565b61062a565b005b61022a60048036038101906102259190612218565b61068a565b6040516102379190612267565b60405180910390f35b61025a60048036038101906102559190612282565b61072f565b005b61027660048036038101906102719190612218565b61074f565b6040516102839190612057565b60405180910390f35b6102a660048036038101906102a19190612163565b610763565b6040516102b39190612267565b60405180910390f35b6102d660048036038101906102d19190612163565b6107d4565b6040516102e391906121d1565b60405180910390f35b610306600480360381019061030191906122d5565b610885565b6040516103139190612267565b60405180910390f35b61032461093c565b604051610331919061210b565b60405180910390f35b610354600480360381019061034f919061232e565b6109ce565b005b610370600480360381019061036b91906124a3565b6109e4565b005b61038c60048036038101906103879190612163565b610a46565b604051610399919061210b565b60405180910390f35b6103bc60048036038101906103b791906125c7565b610b97565b6040516103c99190612267565b60405180910390f35b6103ec60048036038101906103e79190612163565b610c08565b6040516103f99190612267565b60405180910390f35b61041c60048036038101906104179190612623565b610c25565b6040516104299190612057565b60405180910390f35b61044c60048036038101906104479190612663565b610cb9565b005b61046860048036038101906104639190612163565b610d0e565b60405161047591906121d1565b60405180910390f35b60007f780e9d63000000000000000000000000000000000000000000000000000000007bffffffffffffffffffffffffffffffffffffffffffffffffffffffff1916827bffffffffffffffffffffffffffffffffffffffffffffffffffffffff191614806104f157506104f082610d20565b5b9050919050565b606060008054610507906126d2565b80601f0160208091040260200160405190810160405280929190818152602001828054610533906126d2565b80156105805780601f1061055557610100808354040283529160200191610580565b820191906000526020600020905b81548152906001019060200180831161056357829003601f168201915b5050505050905090565b600061059582610e02565b6105d4576040517f08c379a00000000000000000000000000000000000000000000000000000000081526004016105cb90612775565b60405180910390fd5b6004600083815260200190815260200160002060009054906101000a900473ffffffffffffffffffffffffffffffffffffffff169050919050565b6106198282610e6e565b5050565b6000600880549050905090565b61063b610635610f27565b82610f2f565b61067a576040517f08c379a000000000000000000000000000000000000000000000000000000000815260040161067190612807565b60405180910390fd5b61068583838361100d565b505050565b600061069583610885565b82106106d6576040517f08c379a00000000000000000000000000000000000000000000000000000000081526004016106cd90612899565b60405180910390fd5b600660008473ffffffffffffffffffffffffffffffffffffffff1673ffffffffffffffffffffffffffffffffffffffff168152602001908152602001600020600083815260200190815260200160002054905092915050565b61074a838383604051806020016040528060008152506109e4565b505050565b600061075b8383610f2f565b905092915050565b600061076d61061d565b82106107ae576040517f08c379a00000000000000000000000000000000000000000000000000000000081526004016107a59061292b565b60405180910390fd5b600882815481106107c2576107c161294b565b5b90600052602060002001549050919050565b6000806002600084815260200190815260200160002060009054906101000a900473ffffffffffffffffffffffffffffffffffffffff169050600073ffffffffffffffffffffffffffffffffffffffff168173ffffffffffffffffffffffffffffffffffffffff160361087c576040517f08c379a0000000000000000000000000000000000000000000000000000000008152600401610873906129ec565b60405180910390fd5b80915050919050565b60008073ffffffffffffffffffffffffffffffffffffffff168273ffffffffffffffffffffffffffffffffffffffff16036108f5576040517f08c379a00000000000000000000000000000000000000000000000000000000081526004016108ec90612a7e565b60405180910390fd5b600360008373ffffffffffffffffffffffffffffffffffffffff1673ffffffffffffffffffffffffffffffffffffffff168152602001908152602001600020549050919050565b60606001805461094b906126d2565b80601f0160208091040260200160405190810160405280929190818152602001828054610977906126d2565b80156109c45780601f10610999576101008083540402835291602001916109c4565b820191906000526020600020905b8154815290600101906020018083116109a757829003601f168201915b5050505050905090565b6109e06109d9610f27565b8383611273565b5050565b6109f56109ef610f27565b83610f2f565b610a34576040517f08c379a0000000000000000000000000000000000000000000000000000000008152600401610a2b90612807565b60405180910390fd5b610a40848484846113df565b50505050565b6060610a5182610e02565b610a90576040517f08c379a0000000000000000000000000000000000000000000000000000000008152600401610a8790612b10565b60405180910390fd5b6000600b60008481526020019081526020016000208054610ab0906126d2565b80601f0160208091040260200160405190810160405280929190818152602001828054610adc906126d2565b8015610b295780601f10610afe57610100808354040283529160200191610b29565b820191906000526020600020905b815481529060010190602001808311610b0c57829003601f168201915b505050505090506000610b3a61143b565b90506000815103610b4f578192505050610b92565b600082511115610b84578082604051602001610b6c929190612b6c565b60405160208183030381529060405292505050610b92565b610b8d84611452565b925050505b919050565b6000610ba3600a6114f9565b6000610baf600a61150f565b9050610bbb848261151d565b610bc581846116f6565b7f30385c845b448a36257a6a1716e6ad2e1bc2cbe333cde1e69fe849ad6511adfe8482604051610bf6929190612b90565b60405180910390a18091505092915050565b6000600c6000838152602001908152602001600020549050919050565b6000600560008473ffffffffffffffffffffffffffffffffffffffff1673ffffffffffffffffffffffffffffffffffffffff16815260200190815260200160002060008373ffffffffffffffffffffffffffffffffffffffff1673ffffffffffffffffffffffffffffffffffffffff16815260200190815260200160002060009054906101000a900460ff16905092915050565b80600c6000848152602001908152602001600020819055507fa821f7ccc2978f9e95b9577c883b4b4d79925f0587cea3c1a0aa4741fa93db788282604051610d02929190612bb9565b60405180910390a15050565b6000610d198261058a565b9050919050565b60007f80ac58cd000000000000000000000000000000000000000000000000000000007bffffffffffffffffffffffffffffffffffffffffffffffffffffffff1916827bffffffffffffffffffffffffffffffffffffffffffffffffffffffff19161480610deb57507f5b5e139f000000000000000000000000000000000000000000000000000000007bffffffffffffffffffffffffffffffffffffffffffffffffffffffff1916827bffffffffffffffffffffffffffffffffffffffffffffffffffffffff1916145b80610dfb5750610dfa8261176a565b5b9050919050565b60008073ffffffffffffffffffffffffffffffffffffffff166002600084815260200190815260200160002060009054906101000a900473ffffffffffffffffffffffffffffffffffffffff1673ffffffffffffffffffffffffffffffffffffffff1614159050919050565b816004600083815260200190815260200160002060006101000a81548173ffffffffffffffffffffffffffffffffffffffff021916908373ffffffffffffffffffffffffffffffffffffffff160217905550808273ffffffffffffffffffffffffffffffffffffffff16610ee1836107d4565b73ffffffffffffffffffffffffffffffffffffffff167f8c5be1e5ebec7d5bd14f71427d1e84f3dd0314c0f7b2291e5b200ac8c7c3b92560405160405180910390a45050565b600033905090565b6000610f3a82610e02565b610f79576040517f08c379a0000000000000000000000000000000000000000000000000000000008152600401610f7090612c54565b60405180910390fd5b6000610f84836107d4565b90508073ffffffffffffffffffffffffffffffffffffffff168473ffffffffffffffffffffffffffffffffffffffff161480610ff357508373ffffffffffffffffffffffffffffffffffffffff16610fdb8461058a565b73ffffffffffffffffffffffffffffffffffffffff16145b8061100457506110038185610c25565b5b91505092915050565b8273ffffffffffffffffffffffffffffffffffffffff1661102d826107d4565b73ffffffffffffffffffffffffffffffffffffffff1614611083576040517f08c379a000000000000000000000000000000000000000000000000000000000815260040161107a90612ce6565b60405180910390fd5b600073ffffffffffffffffffffffffffffffffffffffff168273ffffffffffffffffffffffffffffffffffffffff16036110f2576040517f08c379a00000000000000000000000000000000000000000000000000000000081526004016110e990612d78565b60405180910390fd5b6110fd8383836117d4565b611108600082610e6e565b6001600360008573ffffffffffffffffffffffffffffffffffffffff1673ffffffffffffffffffffffffffffffffffffffff16815260200190815260200160002060008282546111589190612dc7565b925050819055506001600360008473ffffffffffffffffffffffffffffffffffffffff1673ffffffffffffffffffffffffffffffffffffffff16815260200190815260200160002060008282546111af9190612dfb565b92505081905550816002600083815260200190815260200160002060006101000a81548173ffffffffffffffffffffffffffffffffffffffff021916908373ffffffffffffffffffffffffffffffffffffffff160217905550808273ffffffffffffffffffffffffffffffffffffffff168473ffffffffffffffffffffffffffffffffffffffff167fddf252ad1be2c89b69c2b068fc378daa952ba7f163c4a11628f55a4df523b3ef60405160405180910390a461126e8383836118e6565b505050565b8173ffffffffffffffffffffffffffffffffffffffff168373ffffffffffffffffffffffffffffffffffffffff16036112e1576040517f08c379a00000000000000000000000000000000000000000000000000000000081526004016112d890612e9d565b60405180910390fd5b80600560008573ffffffffffffffffffffffffffffffffffffffff1673ffffffffffffffffffffffffffffffffffffffff16815260200190815260200160002060008473ffffffffffffffffffffffffffffffffffffffff1673ffffffffffffffffffffffffffffffffffffffff16815260200190815260200160002060006101000a81548160ff0219169083151502179055508173ffffffffffffffffffffffffffffffffffffffff168373ffffffffffffffffffffffffffffffffffffffff167f17307eab39ab6107e8899845ad3d59bd9653f200f220920489ca2b5937696c31836040516113d29190612057565b60405180910390a3505050565b6113ea84848461100d565b6113f6848484846118eb565b611435576040517f08c379a000000000000000000000000000000000000000000000000000000000815260040161142c90612f2f565b60405180910390fd5b50505050565b606060405180602001604052806000815250905090565b606061145d82610e02565b61149c576040517f08c379a000000000000000000000000000000000000000000000000000000000815260040161149390612fc1565b60405180910390fd5b60006114a661143b565b905060008151116114c657604051806020016040528060008152506114f1565b806114d084611a72565b6040516020016114e1929190612b6c565b6040516020818303038152906040525b915050919050565b6001816000016000828254019250508190555050565b600081600001549050919050565b600073ffffffffffffffffffffffffffffffffffffffff168273ffffffffffffffffffffffffffffffffffffffff160361158c576040517f08c379a00000000000000000000000000000000000000000000000000000000081526004016115839061302d565b60405180910390fd5b61159581610e02565b156115d5576040517f08c379a00000000000000000000000000000000000000000000000000000000081526004016115cc90613099565b60405180910390fd5b6115e1600083836117d4565b6001600360008473ffffffffffffffffffffffffffffffffffffffff1673ffffffffffffffffffffffffffffffffffffffff16815260200190815260200160002060008282546116319190612dfb565b92505081905550816002600083815260200190815260200160002060006101000a81548173ffffffffffffffffffffffffffffffffffffffff021916908373ffffffffffffffffffffffffffffffffffffffff160217905550808273ffffffffffffffffffffffffffffffffffffffff16600073ffffffffffffffffffffffffffffffffffffffff167fddf252ad1be2c89b69c2b068fc378daa952ba7f163c4a11628f55a4df523b3ef60405160405180910390a46116f2600083836118e6565b5050565b6116ff82610e02565b61173e576040517f08c379a00000000000000000000000000000000000000000000000000000000081526004016117359061312b565b60405180910390fd5b80600b60008481526020019081526020016000209080519060200190611765929190611f00565b505050565b60007f01ffc9a7000000000000000000000000000000000000000000000000000000007bffffffffffffffffffffffffffffffffffffffffffffffffffffffff1916827bffffffffffffffffffffffffffffffffffffffffffffffffffffffff1916149050919050565b6117df838383611bd2565b600073ffffffffffffffffffffffffffffffffffffffff168373ffffffffffffffffffffffffffffffffffffffff16036118215761181c81611bd7565b611860565b8173ffffffffffffffffffffffffffffffffffffffff168373ffffffffffffffffffffffffffffffffffffffff161461185f5761185e8382611c20565b5b5b600073ffffffffffffffffffffffffffffffffffffffff168273ffffffffffffffffffffffffffffffffffffffff16036118a25761189d81611d8d565b6118e1565b8273ffffffffffffffffffffffffffffffffffffffff168273ffffffffffffffffffffffffffffffffffffffff16146118e0576118df8282611e5e565b5b5b505050565b505050565b600061190c8473ffffffffffffffffffffffffffffffffffffffff16611edd565b15611a65578373ffffffffffffffffffffffffffffffffffffffff1663150b7a02611935610f27565b8786866040518563ffffffff1660e01b815260040161195794939291906131a0565b6020604051808303816000875af192505050801561199357506040513d601f19601f820116820180604052508101906119909190613201565b60015b611a15573d80600081146119c3576040519150601f19603f3d011682016040523d82523d6000602084013e6119c8565b606091505b506000815103611a0d576040517f08c379a0000000000000000000000000000000000000000000000000000000008152600401611a0490612f2f565b60405180910390fd5b805181602001fd5b63150b7a0260e01b7bffffffffffffffffffffffffffffffffffffffffffffffffffffffff1916817bffffffffffffffffffffffffffffffffffffffffffffffffffffffff191614915050611a6a565b600190505b949350505050565b606060008203611ab9576040518060400160405280600181526020017f30000000000000000000000000000000000000000000000000000000000000008152509050611bcd565b600082905060005b60008214611aeb578080611ad49061322e565b915050600a82611ae491906132a5565b9150611ac1565b60008167ffffffffffffffff811115611b0757611b06612378565b5b6040519080825280601f01601f191660200182016040528015611b395781602001600182028036833780820191505090505b5090505b60008514611bc657600182611b529190612dc7565b9150600a85611b6191906132d6565b6030611b6d9190612dfb565b60f81b818381518110611b8357611b8261294b565b5b60200101907effffffffffffffffffffffffffffffffffffffffffffffffffffffffffffff1916908160001a905350600a85611bbf91906132a5565b9450611b3d565b8093505050505b919050565b505050565b6008805490506009600083815260200190815260200160002081905550600881908060018154018082558091505060019003906000526020600020016000909190919091505550565b60006001611c2d84610885565b611c379190612dc7565b9050600060076000848152602001908152602001600020549050818114611d1c576000600660008673ffffffffffffffffffffffffffffffffffffffff1673ffffffffffffffffffffffffffffffffffffffff168152602001908152602001600020600084815260200190815260200160002054905080600660008773ffffffffffffffffffffffffffffffffffffffff1673ffffffffffffffffffffffffffffffffffffffff168152602001908152602001600020600084815260200190815260200160002081905550816007600083815260200190815260200160002081905550505b6007600084815260200190815260200160002060009055600660008573ffffffffffffffffffffffffffffffffffffffff1673ffffffffffffffffffffffffffffffffffffffff16815260200190815260200160002060008381526020019081526020016000206000905550505050565b60006001600880549050611da19190612dc7565b9050600060096000848152602001908152602001600020549050600060088381548110611dd157611dd061294b565b5b906000526020600020015490508060088381548110611df357611df261294b565b5b906000526020600020018190555081600960008381526020019081526020016000208190555060096000858152602001908152602001600020600090556008805480611e4257611e41613307565b5b6001900381819060005260206000200160009055905550505050565b6000611e6983610885565b905081600660008573ffffffffffffffffffffffffffffffffffffffff1673ffffffffffffffffffffffffffffffffffffffff168152602001908152602001600020600083815260200190815260200160002081905550806007600084815260200190815260200160002081905550505050565b6000808273ffffffffffffffffffffffffffffffffffffffff163b119050919050565b828054611f0c906126d2565b90600052602060002090601f016020900481019282611f2e5760008555611f75565b82601f10611f4757805160ff1916838001178555611f75565b82800160010185558215611f75579182015b82811115611f74578251825591602001919060010190611f59565b5b509050611f829190611f86565b5090565b5b80821115611f9f576000816000905550600101611f87565b5090565b6000604051905090565b600080fd5b600080fd5b60007fffffffff0000000000000000000000000000000000000000000000000000000082169050919050565b611fec81611fb7565b8114611ff757600080fd5b50565b60008135905061200981611fe3565b92915050565b60006020828403121561202557612024611fad565b5b600061203384828501611ffa565b91505092915050565b60008115159050919050565b6120518161203c565b82525050565b600060208201905061206c6000830184612048565b92915050565b600081519050919050565b600082825260208201905092915050565b60005b838110156120ac578082015181840152602081019050612091565b838111156120bb576000848401525b50505050565b6000601f19601f8301169050919050565b60006120dd82612072565b6120e7818561207d565b93506120f781856020860161208e565b612100816120c1565b840191505092915050565b6000602082019050818103600083015261212581846120d2565b905092915050565b6000819050919050565b6121408161212d565b811461214b57600080fd5b50565b60008135905061215d81612137565b92915050565b60006020828403121561217957612178611fad565b5b60006121878482850161214e565b91505092915050565b600073ffffffffffffffffffffffffffffffffffffffff82169050919050565b60006121bb82612190565b9050919050565b6121cb816121b0565b82525050565b60006020820190506121e660008301846121c2565b92915050565b6121f5816121b0565b811461220057600080fd5b50565b600081359050612212816121ec565b92915050565b6000806040838503121561222f5761222e611fad565b5b600061223d85828601612203565b925050602061224e8582860161214e565b9150509250929050565b6122618161212d565b82525050565b600060208201905061227c6000830184612258565b92915050565b60008060006060848603121561229b5761229a611fad565b5b60006122a986828701612203565b93505060206122ba86828701612203565b92505060406122cb8682870161214e565b9150509250925092565b6000602082840312156122eb576122ea611fad565b5b60006122f984828501612203565b91505092915050565b61230b8161203c565b811461231657600080fd5b50565b60008135905061232881612302565b92915050565b6000806040838503121561234557612344611fad565b5b600061235385828601612203565b925050602061236485828601612319565b9150509250929050565b600080fd5b600080fd5b7f4e487b7100000000000000000000000000000000000000000000000000000000600052604160045260246000fd5b6123b0826120c1565b810181811067ffffffffffffffff821117156123cf576123ce612378565b5b80604052505050565b60006123e2611fa3565b90506123ee82826123a7565b919050565b600067ffffffffffffffff82111561240e5761240d612378565b5b612417826120c1565b9050602081019050919050565b82818337600083830152505050565b6000612446612441846123f3565b6123d8565b90508281526020810184848401111561246257612461612373565b5b61246d848285612424565b509392505050565b600082601f83011261248a5761248961236e565b5b813561249a848260208601612433565b91505092915050565b600080600080608085870312156124bd576124bc611fad565b5b60006124cb87828801612203565b94505060206124dc87828801612203565b93505060406124ed8782880161214e565b925050606085013567ffffffffffffffff81111561250e5761250d611fb2565b5b61251a87828801612475565b91505092959194509250565b600067ffffffffffffffff82111561254157612540612378565b5b61254a826120c1565b9050602081019050919050565b600061256a61256584612526565b6123d8565b90508281526020810184848401111561258657612585612373565b5b612591848285612424565b509392505050565b600082601f8301126125ae576125ad61236e565b5b81356125be848260208601612557565b91505092915050565b600080604083850312156125de576125dd611fad565b5b60006125ec85828601612203565b925050602083013567ffffffffffffffff81111561260d5761260c611fb2565b5b61261985828601612599565b9150509250929050565b6000806040838503121561263a57612639611fad565b5b600061264885828601612203565b925050602061265985828601612203565b9150509250929050565b6000806040838503121561267a57612679611fad565b5b60006126888582860161214e565b92505060206126998582860161214e565b9150509250929050565b7f4e487b7100000000000000000000000000000000000000000000000000000000600052602260045260246000fd5b600060028204905060018216806126ea57607f821691505b6020821081036126fd576126fc6126a3565b5b50919050565b7f4552433732313a20617070726f76656420717565727920666f72206e6f6e657860008201527f697374656e7420746f6b656e0000000000000000000000000000000000000000602082015250565b600061275f602c8361207d565b915061276a82612703565b604082019050919050565b6000602082019050818103600083015261278e81612752565b9050919050565b7f4552433732313a207472616e736665722063616c6c6572206973206e6f74206f60008201527f776e6572206e6f7220617070726f766564000000000000000000000000000000602082015250565b60006127f160318361207d565b91506127fc82612795565b604082019050919050565b60006020820190508181036000830152612820816127e4565b9050919050565b7f455243373231456e756d657261626c653a206f776e657220696e646578206f7560008201527f74206f6620626f756e6473000000000000000000000000000000000000000000602082015250565b6000612883602b8361207d565b915061288e82612827565b604082019050919050565b600060208201905081810360008301526128b281612876565b9050919050565b7f455243373231456e756d657261626c653a20676c6f62616c20696e646578206f60008201527f7574206f6620626f756e64730000000000000000000000000000000000000000602082015250565b6000612915602c8361207d565b9150612920826128b9565b604082019050919050565b6000602082019050818103600083015261294481612908565b9050919050565b7f4e487b7100000000000000000000000000000000000000000000000000000000600052603260045260246000fd5b7f4552433732313a206f776e657220717565727920666f72206e6f6e657869737460008201527f656e7420746f6b656e0000000000000000000000000000000000000000000000602082015250565b60006129d660298361207d565b91506129e18261297a565b604082019050919050565b60006020820190508181036000830152612a05816129c9565b9050919050565b7f4552433732313a2062616c616e636520717565727920666f7220746865207a6560008201527f726f206164647265737300000000000000000000000000000000000000000000602082015250565b6000612a68602a8361207d565b9150612a7382612a0c565b604082019050919050565b60006020820190508181036000830152612a9781612a5b565b9050919050565b7f45524337323155524953746f726167653a2055524920717565727920666f722060008201527f6e6f6e6578697374656e7420746f6b656e000000000000000000000000000000602082015250565b6000612afa60318361207d565b9150612b0582612a9e565b604082019050919050565b60006020820190508181036000830152612b2981612aed565b9050919050565b600081905092915050565b6000612b4682612072565b612b508185612b30565b9350612b6081856020860161208e565b80840191505092915050565b6000612b788285612b3b565b9150612b848284612b3b565b91508190509392505050565b6000604082019050612ba560008301856121c2565b612bb26020830184612258565b9392505050565b6000604082019050612bce6000830185612258565b612bdb6020830184612258565b9392505050565b7f4552433732313a206f70657261746f7220717565727920666f72206e6f6e657860008201527f697374656e7420746f6b656e0000000000000000000000000000000000000000602082015250565b6000612c3e602c8361207d565b9150612c4982612be2565b604082019050919050565b60006020820190508181036000830152612c6d81612c31565b9050919050565b7f4552433732313a207472616e736665722066726f6d20696e636f72726563742060008201527f6f776e6572000000000000000000000000000000000000000000000000000000602082015250565b6000612cd060258361207d565b9150612cdb82612c74565b604082019050919050565b60006020820190508181036000830152612cff81612cc3565b9050919050565b7f4552433732313a207472616e7366657220746f20746865207a65726f2061646460008201527f7265737300000000000000000000000000000000000000000000000000000000602082015250565b6000612d6260248361207d565b9150612d6d82612d06565b604082019050919050565b60006020820190508181036000830152612d9181612d55565b9050919050565b7f4e487b7100000000000000000000000000000000000000000000000000000000600052601160045260246000fd5b6000612dd28261212d565b9150612ddd8361212d565b925082821015612df057612def612d98565b5b828203905092915050565b6000612e068261212d565b9150612e118361212d565b9250827fffffffffffffffffffffffffffffffffffffffffffffffffffffffffffffffff03821115612e4657612e45612d98565b5b828201905092915050565b7f4552433732313a20617070726f766520746f2063616c6c657200000000000000600082015250565b6000612e8760198361207d565b9150612e9282612e51565b602082019050919050565b60006020820190508181036000830152612eb681612e7a565b9050919050565b7f4552433732313a207472616e7366657220746f206e6f6e20455243373231526560008201527f63656976657220696d706c656d656e7465720000000000000000000000000000602082015250565b6000612f1960328361207d565b9150612f2482612ebd565b604082019050919050565b60006020820190508181036000830152612f4881612f0c565b9050919050565b7f4552433732314d657461646174613a2055524920717565727920666f72206e6f60008201527f6e6578697374656e7420746f6b656e0000000000000000000000000000000000602082015250565b6000612fab602f8361207d565b9150612fb682612f4f565b604082019050919050565b60006020820190508181036000830152612fda81612f9e565b9050919050565b7f4552433732313a206d696e7420746f20746865207a65726f2061646472657373600082015250565b600061301760208361207d565b915061302282612fe1565b602082019050919050565b600060208201905081810360008301526130468161300a565b9050919050565b7f4552433732313a20746f6b656e20616c7265616479206d696e74656400000000600082015250565b6000613083601c8361207d565b915061308e8261304d565b602082019050919050565b600060208201905081810360008301526130b281613076565b9050919050565b7f45524337323155524953746f726167653a2055524920736574206f66206e6f6e60008201527f6578697374656e7420746f6b656e000000000000000000000000000000000000602082015250565b6000613115602e8361207d565b9150613120826130b9565b604082019050919050565b6000602082019050818103600083015261314481613108565b9050919050565b600081519050919050565b600082825260208201905092915050565b60006131728261314b565b61317c8185613156565b935061318c81856020860161208e565b613195816120c1565b840191505092915050565b60006080820190506131b560008301876121c2565b6131c260208301866121c2565b6131cf6040830185612258565b81810360608301526131e18184613167565b905095945050505050565b6000815190506131fb81611fe3565b92915050565b60006020828403121561321757613216611fad565b5b6000613225848285016131ec565b91505092915050565b60006132398261212d565b91507fffffffffffffffffffffffffffffffffffffffffffffffffffffffffffffffff820361326b5761326a612d98565b5b600182019050919050565b7f4e487b7100000000000000000000000000000000000000000000000000000000600052601260045260246000fd5b60006132b08261212d565b91506132bb8361212d565b9250826132cb576132ca613276565b5b828204905092915050565b60006132e18261212d565b91506132ec8361212d565b9250826132fc576132fb613276565b5b828206905092915050565b7f4e487b7100000000000000000000000000000000000000000000000000000000600052603160045260246000fdfea264697066735822122061a7d89a4c13faa44c999c7687d59371619350f8ab98a9e8b57515d68ae3ea4964736f6c634300080d0033a2646970667358221220174bb16dcce978a2cc8411e9982d120c781552e077557ca37e9e1446947ed86c64736f6c634300080d0033",
  "immutableReferences": {},
  "source": "// SPDX-License-Identifier: GPL-3.0\npragma solidity 0.8.13;\n\nimport \"./ERC721Token.sol\";\n\ncontract Factory {\n\n    event CollectionCreated(address contractAddress, address owner);\n    event FactoryMinted(address contractAddress, address owner, uint256 tokenId);\n\n    address[] private collections;\n    mapping(address => mapping(address => uint256[])) private ownerCollections;\n\n    function deploy(string memory _name, string memory _symbol) external payable {\n        bytes32 _salt = keccak256(abi.encodePacked(_name));\n        ERC721Token token = new ERC721Token{salt: _salt}(_name, _symbol);\n        address tokenAddress = address(token);\n        collections.push(tokenAddress);\n    \n        emit CollectionCreated(address(token), msg.sender);\n    }\n\n    function mint(address _tokenAddress, address _owner, string memory _uri) external returns(uint256) {\n        uint256 tokenId = ERC721Token(_tokenAddress).mint(_owner, _uri);\n        ownerCollections[_owner][_tokenAddress].push(tokenId);\n        emit FactoryMinted(_tokenAddress, _owner, tokenId);\n        \n        return tokenId;\n    }\n\n    function getTokenURI(address _tokenAddress, uint256 _tokenId) public view returns(string memory) {\n        return ERC721Token(_tokenAddress).tokenURI(_tokenId);\n    }\n\n    function getCollections() public view returns (address[] memory) {\n        return collections;\n    }\n\n    function getOwnerBalanceByCollection(address _tokenAddress, address _owner) public view returns(uint256){\n        return ERC721Token(_tokenAddress).balanceOf(_owner);\n    }\n\n    function getTotalSupply(address _tokenAddress) public view returns(uint256) {\n        return ERC721Token(_tokenAddress).totalSupply();\n    }\n\n    function getOwnerTokenIdsByCollection(address _tokenAddress, address _owner) public view returns(uint256[] memory) {\n        return ownerCollections[_owner][_tokenAddress];\n    }\n\n    function getCollectionName(address _tokenAddress) public view returns (string memory) {\n        return ERC721Token(_tokenAddress).name();\n    }\n\n    function setPrice(address _contractCollection, uint256 _tokenId, uint256 _price) external {\n        ERC721Token(_contractCollection).setPrice(_tokenId, _price);\n    }\n\n    function getPrice(address _contractCollection, uint256 _tokenId) public view returns (uint256) {\n        return ERC721Token(_contractCollection).getPrice(_tokenId);\n    }\n}\n",
  "sourcePath": "/Users/rchea/workspaces/alyra/marketplace/contracts/Factory.sol",
  "compiler": {
    "name": "solc",
    "version": "0.8.13+commit.abaa5c0e.Emscripten.clang"
  },
  "schemaVersion": "3.4.7",
  "updatedAt": "2022-05-22T23:55:58.125Z",
  "networkType": "ethereum",
  "devdoc": {
    "kind": "dev",
    "methods": {},
    "version": 1
  },
  "userdoc": {
    "kind": "user",
    "methods": {},
    "version": 1
  }
}