{
  "contractName": "SaleFactory",
  "abi": [
    {
      "anonymous": false,
      "inputs": [
        {
          "indexed": false,
          "internalType": "address",
          "name": "buyer",
          "type": "address"
        },
        {
          "indexed": false,
          "internalType": "uint256",
          "name": "amount",
          "type": "uint256"
        },
        {
          "indexed": false,
          "internalType": "address",
          "name": "contractCollection",
          "type": "address"
        },
        {
          "indexed": false,
          "internalType": "uint256",
          "name": "tokenId",
          "type": "uint256"
        }
      ],
      "name": "AmountSalePriceDeposit",
      "type": "event"
    },
    {
      "anonymous": false,
      "inputs": [
        {
          "indexed": false,
          "internalType": "address",
          "name": "contractCollection",
          "type": "address"
        },
        {
          "indexed": false,
          "internalType": "uint256",
          "name": "tokenId",
          "type": "uint256"
        },
        {
          "indexed": false,
          "internalType": "uint256",
          "name": "price",
          "type": "uint256"
        }
      ],
      "name": "SaleCreated",
      "type": "event"
    },
    {
      "anonymous": false,
      "inputs": [
        {
          "indexed": false,
          "internalType": "address",
          "name": "owner",
          "type": "address"
        },
        {
          "indexed": false,
          "internalType": "address",
          "name": "buyer",
          "type": "address"
        },
        {
          "indexed": false,
          "internalType": "address",
          "name": "contractCollection",
          "type": "address"
        },
        {
          "indexed": false,
          "internalType": "uint256",
          "name": "tokenId",
          "type": "uint256"
        }
      ],
      "name": "TransferredToken",
      "type": "event"
    },
    {
      "inputs": [
        {
          "internalType": "address",
          "name": "_contractCollection",
          "type": "address"
        },
        {
          "internalType": "uint256",
          "name": "_tokenId",
          "type": "uint256"
        },
        {
          "internalType": "uint256",
          "name": "_price",
          "type": "uint256"
        }
      ],
      "name": "createSale",
      "outputs": [],
      "stateMutability": "nonpayable",
      "type": "function"
    },
    {
      "inputs": [
        {
          "internalType": "address",
          "name": "_contractCollection",
          "type": "address"
        },
        {
          "internalType": "uint256",
          "name": "_tokenId",
          "type": "uint256"
        }
      ],
      "name": "getPrice",
      "outputs": [
        {
          "internalType": "uint256",
          "name": "",
          "type": "uint256"
        }
      ],
      "stateMutability": "view",
      "type": "function",
      "constant": true
    },
    {
      "inputs": [
        {
          "internalType": "address",
          "name": "_contractCollection",
          "type": "address"
        }
      ],
      "name": "getSales",
      "outputs": [
        {
          "components": [
            {
              "internalType": "uint256",
              "name": "tokenId",
              "type": "uint256"
            },
            {
              "internalType": "uint256",
              "name": "price",
              "type": "uint256"
            }
          ],
          "internalType": "struct SaleFactory.Sale[]",
          "name": "",
          "type": "tuple[]"
        }
      ],
      "stateMutability": "view",
      "type": "function",
      "constant": true
    },
    {
      "inputs": [
        {
          "internalType": "address",
          "name": "_contractCollection",
          "type": "address"
        },
        {
          "internalType": "uint256",
          "name": "_tokenId",
          "type": "uint256"
        }
      ],
      "name": "getIndexByCollectionAndToken",
      "outputs": [
        {
          "internalType": "uint256",
          "name": "",
          "type": "uint256"
        }
      ],
      "stateMutability": "view",
      "type": "function",
      "constant": true
    },
    {
      "inputs": [
        {
          "internalType": "address",
          "name": "_contractCollection",
          "type": "address"
        },
        {
          "internalType": "uint256",
          "name": "_tokenId",
          "type": "uint256"
        }
      ],
      "name": "pay",
      "outputs": [],
      "stateMutability": "payable",
      "type": "function",
      "payable": true
    },
    {
      "inputs": [
        {
          "internalType": "address",
          "name": "_contractCollection",
          "type": "address"
        },
        {
          "internalType": "uint256",
          "name": "_tokenId",
          "type": "uint256"
        }
      ],
      "name": "approveToken",
      "outputs": [],
      "stateMutability": "nonpayable",
      "type": "function"
    },
    {
      "inputs": [
        {
          "internalType": "address",
          "name": "_contractCollection",
          "type": "address"
        },
        {
          "internalType": "uint256",
          "name": "_tokenId",
          "type": "uint256"
        }
      ],
      "name": "getApprovals",
      "outputs": [
        {
          "internalType": "address",
          "name": "",
          "type": "address"
        }
      ],
      "stateMutability": "view",
      "type": "function",
      "constant": true
    },
    {
      "inputs": [
        {
          "internalType": "address",
          "name": "_contractCollection",
          "type": "address"
        },
        {
          "internalType": "uint256",
          "name": "_tokenId",
          "type": "uint256"
        }
      ],
      "name": "isApprovedOrOwner",
      "outputs": [
        {
          "internalType": "bool",
          "name": "",
          "type": "bool"
        }
      ],
      "stateMutability": "view",
      "type": "function",
      "constant": true
    }
  ],
  "bytecode": "0x608060405234801561001057600080fd5b50610f31806100206000396000f3fe60806040526004361061007b5760003560e01c8063777e33711161004e578063777e3371146101605780639f161af21461019d578063c4076876146101c6578063e16bd3b7146101e25761007b565b8063022fc88b146100805780631d47f8c1146100a9578063430c2081146100e6578063449e815d14610123575b600080fd5b34801561008c57600080fd5b506100a760048036038101906100a29190610a14565b61021f565b005b3480156100b557600080fd5b506100d060048036038101906100cb9190610a14565b610290565b6040516100dd9190610a63565b60405180910390f35b3480156100f257600080fd5b5061010d60048036038101906101089190610a14565b610314565b60405161011a9190610a99565b60405180910390f35b34801561012f57600080fd5b5061014a60048036038101906101459190610a14565b61039a565b6040516101579190610ac3565b60405180910390f35b34801561016c57600080fd5b5061018760048036038101906101829190610a14565b61045b565b6040516101949190610ac3565b60405180910390f35b3480156101a957600080fd5b506101c460048036038101906101bf9190610ade565b6104b6565b005b6101e060048036038101906101db9190610a14565b61061e565b005b3480156101ee57600080fd5b5061020960048036038101906102049190610b31565b6108ca565b6040516102169190610c4b565b60405180910390f35b8173ffffffffffffffffffffffffffffffffffffffff1663095ea7b333836040518363ffffffff1660e01b815260040161025a929190610c6d565b600060405180830381600087803b15801561027457600080fd5b505af1158015610288573d6000803e3d6000fd5b505050505050565b60008273ffffffffffffffffffffffffffffffffffffffff1663081812fc836040518263ffffffff1660e01b81526004016102cb9190610ac3565b602060405180830381865afa1580156102e8573d6000803e3d6000fd5b505050506040513d601f19601f8201168201806040525081019061030c9190610cab565b905092915050565b60008273ffffffffffffffffffffffffffffffffffffffff1663430c208133846040518363ffffffff1660e01b8152600401610351929190610c6d565b602060405180830381865afa15801561036e573d6000803e3d6000fd5b505050506040513d601f19601f820116820180604052508101906103929190610d04565b905092915050565b600080600160008573ffffffffffffffffffffffffffffffffffffffff1673ffffffffffffffffffffffffffffffffffffffff16815260200190815260200160002060008481526020019081526020016000205490506000808573ffffffffffffffffffffffffffffffffffffffff1673ffffffffffffffffffffffffffffffffffffffff16815260200190815260200160002081815481106104405761043f610d31565b5b90600052602060002090600202016001015491505092915050565b6000600160008473ffffffffffffffffffffffffffffffffffffffff1673ffffffffffffffffffffffffffffffffffffffff168152602001908152602001600020600083815260200190815260200160002054905092915050565b6000808473ffffffffffffffffffffffffffffffffffffffff1673ffffffffffffffffffffffffffffffffffffffff16815260200190815260200160002080549050600160008573ffffffffffffffffffffffffffffffffffffffff1673ffffffffffffffffffffffffffffffffffffffff1681526020019081526020016000206000848152602001908152602001600020819055506000808473ffffffffffffffffffffffffffffffffffffffff1673ffffffffffffffffffffffffffffffffffffffff1681526020019081526020016000206040518060400160405280848152602001838152509080600181540180825580915050600190039060005260206000209060020201600090919091909150600082015181600001556020820151816001015550507f2c5a9de64e99c2ab1b836ad03048ec0bef7c0a2af3dd947595c46274e50a7c8283838360405161061193929190610d60565b60405180910390a1505050565b6000600160008473ffffffffffffffffffffffffffffffffffffffff1673ffffffffffffffffffffffffffffffffffffffff1681526020019081526020016000206000838152602001908152602001600020549050346000808573ffffffffffffffffffffffffffffffffffffffff1673ffffffffffffffffffffffffffffffffffffffff16815260200190815260200160002082815481106106c4576106c3610d31565b5b90600052602060002090600202016001015414610716576040517f08c379a000000000000000000000000000000000000000000000000000000000815260040161070d90610e1a565b60405180910390fd5b7f3786d5831b0648e2da38216ace24cee1b823ecc9d3fef76c3b0834ece70cad8e3334858560405161074b9493929190610e3a565b60405180910390a160008373ffffffffffffffffffffffffffffffffffffffff16636352211e846040518263ffffffff1660e01b815260040161078e9190610ac3565b602060405180830381865afa1580156107ab573d6000803e3d6000fd5b505050506040513d601f19601f820116820180604052508101906107cf9190610cab565b90508373ffffffffffffffffffffffffffffffffffffffff166323b872dd8233866040518463ffffffff1660e01b815260040161080e93929190610e7f565b600060405180830381600087803b15801561082857600080fd5b505af115801561083c573d6000803e3d6000fd5b505050507f18197d7ddedf9f741835c97e5b80d0e808803c23812ccaeb0ab9bc9c08ee3645813386866040516108759493929190610eb6565b60405180910390a18073ffffffffffffffffffffffffffffffffffffffff166108fc349081150290604051600060405180830381858888f193505050501580156108c3573d6000803e3d6000fd5b5050505050565b60606000808373ffffffffffffffffffffffffffffffffffffffff1673ffffffffffffffffffffffffffffffffffffffff168152602001908152602001600020805480602002602001604051908101604052809291908181526020016000905b828210156109705783829060005260206000209060020201604051806040016040529081600082015481526020016001820154815250508152602001906001019061092a565b505050509050919050565b600080fd5b600073ffffffffffffffffffffffffffffffffffffffff82169050919050565b60006109ab82610980565b9050919050565b6109bb816109a0565b81146109c657600080fd5b50565b6000813590506109d8816109b2565b92915050565b6000819050919050565b6109f1816109de565b81146109fc57600080fd5b50565b600081359050610a0e816109e8565b92915050565b60008060408385031215610a2b57610a2a61097b565b5b6000610a39858286016109c9565b9250506020610a4a858286016109ff565b9150509250929050565b610a5d816109a0565b82525050565b6000602082019050610a786000830184610a54565b92915050565b60008115159050919050565b610a9381610a7e565b82525050565b6000602082019050610aae6000830184610a8a565b92915050565b610abd816109de565b82525050565b6000602082019050610ad86000830184610ab4565b92915050565b600080600060608486031215610af757610af661097b565b5b6000610b05868287016109c9565b9350506020610b16868287016109ff565b9250506040610b27868287016109ff565b9150509250925092565b600060208284031215610b4757610b4661097b565b5b6000610b55848285016109c9565b91505092915050565b600081519050919050565b600082825260208201905092915050565b6000819050602082019050919050565b610b93816109de565b82525050565b604082016000820151610baf6000850182610b8a565b506020820151610bc26020850182610b8a565b50505050565b6000610bd48383610b99565b60408301905092915050565b6000602082019050919050565b6000610bf882610b5e565b610c028185610b69565b9350610c0d83610b7a565b8060005b83811015610c3e578151610c258882610bc8565b9750610c3083610be0565b925050600181019050610c11565b5085935050505092915050565b60006020820190508181036000830152610c658184610bed565b905092915050565b6000604082019050610c826000830185610a54565b610c8f6020830184610ab4565b9392505050565b600081519050610ca5816109b2565b92915050565b600060208284031215610cc157610cc061097b565b5b6000610ccf84828501610c96565b91505092915050565b610ce181610a7e565b8114610cec57600080fd5b50565b600081519050610cfe81610cd8565b92915050565b600060208284031215610d1a57610d1961097b565b5b6000610d2884828501610cef565b91505092915050565b7f4e487b7100000000000000000000000000000000000000000000000000000000600052603260045260246000fd5b6000606082019050610d756000830186610a54565b610d826020830185610ab4565b610d8f6040830184610ab4565b949350505050565b600082825260208201905092915050565b7f616d6f756e74206465706f736974656420697320646966666572656e7420667260008201527f6f6d207468652070726963650000000000000000000000000000000000000000602082015250565b6000610e04602c83610d97565b9150610e0f82610da8565b604082019050919050565b60006020820190508181036000830152610e3381610df7565b9050919050565b6000608082019050610e4f6000830187610a54565b610e5c6020830186610ab4565b610e696040830185610a54565b610e766060830184610ab4565b95945050505050565b6000606082019050610e946000830186610a54565b610ea16020830185610a54565b610eae6040830184610ab4565b949350505050565b6000608082019050610ecb6000830187610a54565b610ed86020830186610a54565b610ee56040830185610a54565b610ef26060830184610ab4565b9594505050505056fea264697066735822122054c2ab64708f8ea8091575324065226add5d05c1c3d1cd66e2d3a46b9085565764736f6c634300080d0033",
  "immutableReferences": {},
  "source": "// SPDX-License-Identifier: GPL-3.0\npragma solidity 0.8.13;\n\nimport \"./ERC721Token.sol\";\n\ncontract SaleFactory {\n\n    event AmountSalePriceDeposit(address buyer, uint amount, address contractCollection, uint256 tokenId);\n    event TransferredToken(address owner, address buyer, address contractCollection, uint256 tokenId);\n    event SaleCreated(address contractCollection, uint256 tokenId, uint256 price);\n\n    struct Sale {\n        uint256 tokenId;\n        uint256 price;\n    }\n    mapping(address => Sale[]) private sales;\n    \n    // contract address => token => index\n    mapping(address => mapping(uint256 => uint256)) private salesTokenIndex;\n\n    function createSale(address _contractCollection, uint256 _tokenId, uint256 _price) external {\n        salesTokenIndex[_contractCollection][_tokenId] = sales[_contractCollection].length;\n        sales[_contractCollection].push(Sale(_tokenId, _price));\n        \n        emit SaleCreated(_contractCollection, _tokenId, _price);\n    }\n\n    function getPrice(address _contractCollection, uint256 _tokenId) public view returns(uint256){\n        uint index = salesTokenIndex[_contractCollection][_tokenId];\n        \n        return sales[_contractCollection][index].price;\n    }\n\n    function getSales(address _contractCollection) public view returns(Sale[] memory) {\n        return sales[_contractCollection];\n    }\n\n    function getIndexByCollectionAndToken(address _contractCollection, uint256 _tokenId) public view returns (uint256) {\n        return salesTokenIndex[_contractCollection][_tokenId];\n    }\n\n    function pay(address _contractCollection, uint256 _tokenId) external payable {\n        // deposit\n        uint index = salesTokenIndex[_contractCollection][_tokenId];\n        require(sales[_contractCollection][index].price == msg.value, \"amount deposited is different from the price\");\n        emit AmountSalePriceDeposit(msg.sender, msg.value, _contractCollection, _tokenId);\n\n        // transfer token bought\n        address owner = ERC721Token(_contractCollection).ownerOf(_tokenId);\n        ERC721Token(_contractCollection).transferFrom(owner, msg.sender, _tokenId);\n        emit TransferredToken(owner, msg.sender, _contractCollection, _tokenId);\n\n        // pay old owner\n        payable(owner).transfer(msg.value);\n    }\n\n    function approveToken(address _contractCollection, uint256 _tokenId) external {\n        ERC721Token(_contractCollection).approve(msg.sender, _tokenId);\n    }\n\n    function getApprovals(address _contractCollection, uint256 _tokenId) public view returns(address) {\n        return ERC721Token(_contractCollection).getApproved(_tokenId);\n    }\n\n    function isApprovedOrOwner(address _contractCollection, uint256 _tokenId) public view returns(bool) {\n        return ERC721Token(_contractCollection).isApprovedOrOwner(msg.sender, _tokenId);\n    }\n}\n",
  "sourcePath": "/Users/rchea/workspaces/alyra/marketplace/contracts/SaleFactory.sol",
  "compiler": {
    "name": "solc",
    "version": "0.8.13+commit.abaa5c0e.Emscripten.clang"
  },
  "schemaVersion": "3.4.7",
  "updatedAt": "2022-05-22T23:21:30.799Z",
  "networkType": "ethereum",
  "devdoc": {
    "kind": "dev",
    "methods": {},
    "version": 1
  },
  "userdoc": {
    "kind": "user",
    "methods": {},
    "version": 1
  }
}